{
  "_format": "hh-sol-artifact-1",
  "contractName": "CharityPets",
  "sourceName": "contracts/CharityPets.sol",
  "abi": [
    {
      "inputs": [
        {
          "internalType": "string[23]",
          "name": "petsTokensUris",
          "type": "string[23]"
        }
      ],
      "stateMutability": "nonpayable",
      "type": "constructor"
    },
    {
      "anonymous": false,
      "inputs": [
        {
          "indexed": true,
          "internalType": "address",
          "name": "owner",
          "type": "address"
        },
        {
          "indexed": true,
          "internalType": "address",
          "name": "approved",
          "type": "address"
        },
        {
          "indexed": true,
          "internalType": "uint256",
          "name": "tokenId",
          "type": "uint256"
        }
      ],
      "name": "Approval",
      "type": "event"
    },
    {
      "anonymous": false,
      "inputs": [
        {
          "indexed": true,
          "internalType": "address",
          "name": "owner",
          "type": "address"
        },
        {
          "indexed": true,
          "internalType": "address",
          "name": "operator",
          "type": "address"
        },
        {
          "indexed": false,
          "internalType": "bool",
          "name": "approved",
          "type": "bool"
        }
      ],
      "name": "ApprovalForAll",
      "type": "event"
    },
    {
      "anonymous": false,
      "inputs": [
        {
          "indexed": true,
          "internalType": "address",
          "name": "previousOwner",
          "type": "address"
        },
        {
          "indexed": true,
          "internalType": "address",
          "name": "newOwner",
          "type": "address"
        }
      ],
      "name": "OwnershipTransferred",
      "type": "event"
    },
    {
      "anonymous": false,
      "inputs": [
        {
          "indexed": true,
          "internalType": "address",
          "name": "from",
          "type": "address"
        },
        {
          "indexed": true,
          "internalType": "address",
          "name": "to",
          "type": "address"
        },
        {
          "indexed": true,
          "internalType": "uint256",
          "name": "tokenId",
          "type": "uint256"
        }
      ],
      "name": "Transfer",
      "type": "event"
    },
    {
      "inputs": [],
      "name": "MAX_PER_WALLET",
      "outputs": [
        {
          "internalType": "uint256",
          "name": "",
          "type": "uint256"
        }
      ],
      "stateMutability": "view",
      "type": "function"
    },
    {
      "inputs": [],
      "name": "MAX_SUPPLY",
      "outputs": [
        {
          "internalType": "uint256",
          "name": "",
          "type": "uint256"
        }
      ],
      "stateMutability": "view",
      "type": "function"
    },
    {
      "inputs": [],
      "name": "MINT_FEE",
      "outputs": [
        {
          "internalType": "uint256",
          "name": "",
          "type": "uint256"
        }
      ],
      "stateMutability": "view",
      "type": "function"
    },
    {
      "inputs": [
        {
          "internalType": "address",
          "name": "to",
          "type": "address"
        },
        {
          "internalType": "uint256",
          "name": "tokenId",
          "type": "uint256"
        }
      ],
      "name": "approve",
      "outputs": [],
      "stateMutability": "nonpayable",
      "type": "function"
    },
    {
      "inputs": [
        {
          "internalType": "address",
          "name": "owner",
          "type": "address"
        }
      ],
      "name": "balanceOf",
      "outputs": [
        {
          "internalType": "uint256",
          "name": "",
          "type": "uint256"
        }
      ],
      "stateMutability": "view",
      "type": "function"
    },
    {
      "inputs": [
        {
          "internalType": "uint256",
          "name": "tokenId",
          "type": "uint256"
        }
      ],
      "name": "getApproved",
      "outputs": [
        {
          "internalType": "address",
          "name": "",
          "type": "address"
        }
      ],
      "stateMutability": "view",
      "type": "function"
    },
    {
      "inputs": [
        {
          "internalType": "address",
          "name": "owner",
          "type": "address"
        },
        {
          "internalType": "address",
          "name": "operator",
          "type": "address"
        }
      ],
      "name": "isApprovedForAll",
      "outputs": [
        {
          "internalType": "bool",
          "name": "",
          "type": "bool"
        }
      ],
      "stateMutability": "view",
      "type": "function"
    },
    {
      "inputs": [],
      "name": "isPublicMintEnabled",
      "outputs": [
        {
          "internalType": "bool",
          "name": "",
          "type": "bool"
        }
      ],
      "stateMutability": "view",
      "type": "function"
    },
    {
      "inputs": [
        {
          "internalType": "uint256",
          "name": "amount",
          "type": "uint256"
        }
      ],
      "name": "mint",
      "outputs": [],
      "stateMutability": "payable",
      "type": "function"
    },
    {
      "inputs": [],
      "name": "name",
      "outputs": [
        {
          "internalType": "string",
          "name": "",
          "type": "string"
        }
      ],
      "stateMutability": "view",
      "type": "function"
    },
    {
      "inputs": [],
      "name": "owner",
      "outputs": [
        {
          "internalType": "address",
          "name": "",
          "type": "address"
        }
      ],
      "stateMutability": "view",
      "type": "function"
    },
    {
      "inputs": [
        {
          "internalType": "uint256",
          "name": "tokenId",
          "type": "uint256"
        }
      ],
      "name": "ownerOf",
      "outputs": [
        {
          "internalType": "address",
          "name": "",
          "type": "address"
        }
      ],
      "stateMutability": "view",
      "type": "function"
    },
    {
      "inputs": [],
      "name": "renounceOwnership",
      "outputs": [],
      "stateMutability": "nonpayable",
      "type": "function"
    },
    {
      "inputs": [
        {
          "internalType": "address",
          "name": "from",
          "type": "address"
        },
        {
          "internalType": "address",
          "name": "to",
          "type": "address"
        },
        {
          "internalType": "uint256",
          "name": "tokenId",
          "type": "uint256"
        }
      ],
      "name": "safeTransferFrom",
      "outputs": [],
      "stateMutability": "nonpayable",
      "type": "function"
    },
    {
      "inputs": [
        {
          "internalType": "address",
          "name": "from",
          "type": "address"
        },
        {
          "internalType": "address",
          "name": "to",
          "type": "address"
        },
        {
          "internalType": "uint256",
          "name": "tokenId",
          "type": "uint256"
        },
        {
          "internalType": "bytes",
          "name": "data",
          "type": "bytes"
        }
      ],
      "name": "safeTransferFrom",
      "outputs": [],
      "stateMutability": "nonpayable",
      "type": "function"
    },
    {
      "inputs": [
        {
          "internalType": "address",
          "name": "operator",
          "type": "address"
        },
        {
          "internalType": "bool",
          "name": "approved",
          "type": "bool"
        }
      ],
      "name": "setApprovalForAll",
      "outputs": [],
      "stateMutability": "nonpayable",
      "type": "function"
    },
    {
      "inputs": [
        {
          "internalType": "bool",
          "name": "isEnabled",
          "type": "bool"
        }
      ],
      "name": "setIsPublicMintEnable",
      "outputs": [],
      "stateMutability": "nonpayable",
      "type": "function"
    },
    {
      "inputs": [
        {
          "internalType": "bytes4",
          "name": "interfaceId",
          "type": "bytes4"
        }
      ],
      "name": "supportsInterface",
      "outputs": [
        {
          "internalType": "bool",
          "name": "",
          "type": "bool"
        }
      ],
      "stateMutability": "view",
      "type": "function"
    },
    {
      "inputs": [],
      "name": "symbol",
      "outputs": [
        {
          "internalType": "string",
          "name": "",
          "type": "string"
        }
      ],
      "stateMutability": "view",
      "type": "function"
    },
    {
      "inputs": [
        {
          "internalType": "uint256",
          "name": "tokenId",
          "type": "uint256"
        }
      ],
      "name": "tokenURI",
      "outputs": [
        {
          "internalType": "string",
          "name": "",
          "type": "string"
        }
      ],
      "stateMutability": "view",
      "type": "function"
    },
    {
      "inputs": [],
      "name": "totalSupply",
      "outputs": [
        {
          "internalType": "uint256",
          "name": "",
          "type": "uint256"
        }
      ],
      "stateMutability": "view",
      "type": "function"
    },
    {
      "inputs": [
        {
          "internalType": "address",
          "name": "from",
          "type": "address"
        },
        {
          "internalType": "address",
          "name": "to",
          "type": "address"
        },
        {
          "internalType": "uint256",
          "name": "tokenId",
          "type": "uint256"
        }
      ],
      "name": "transferFrom",
      "outputs": [],
      "stateMutability": "nonpayable",
      "type": "function"
    },
    {
      "inputs": [
        {
          "internalType": "address",
          "name": "newOwner",
          "type": "address"
        }
      ],
      "name": "transferOwnership",
      "outputs": [],
      "stateMutability": "nonpayable",
      "type": "function"
    },
    {
      "inputs": [
        {
          "internalType": "address",
          "name": "",
          "type": "address"
        }
      ],
      "name": "walletMints",
      "outputs": [
        {
          "internalType": "uint256",
          "name": "",
          "type": "uint256"
        }
      ],
      "stateMutability": "view",
      "type": "function"
    },
    {
      "inputs": [],
      "name": "withdraw",
      "outputs": [],
      "stateMutability": "nonpayable",
      "type": "function"
    }
  ],
  "bytecode": "0x60e06040526032608090815250600360a09081525066071afd498d000060c0908152503480156200002f57600080fd5b506040516200431d3803806200431d833981810160405281019062000055919062000562565b6040518060400160405280600b81526020017f43686172697479506574730000000000000000000000000000000000000000008152506040518060400160405280600281526020017f43500000000000000000000000000000000000000000000000000000000000008152508160009081620000d29190620007fe565b508060019081620000e49190620007fe565b50505062000107620000fb6200012a60201b60201c565b6200013260201b60201c565b80600a9060176200011a929190620001f8565b50600060088190555050620008e5565b600033905090565b6000600760009054906101000a900473ffffffffffffffffffffffffffffffffffffffff16905081600760006101000a81548173ffffffffffffffffffffffffffffffffffffffff021916908373ffffffffffffffffffffffffffffffffffffffff1602179055508173ffffffffffffffffffffffffffffffffffffffff168173ffffffffffffffffffffffffffffffffffffffff167f8be0079c531659141344cd1fd0a4f28419497f9722a3daafe3b4186f6b6457e060405160405180910390a35050565b82805482825590600052602060002090810192821562000245579160200282015b8281111562000244578251829081620002339190620007fe565b509160200191906001019062000219565b5b50905062000254919062000258565b5090565b5b808211156200027c576000818162000272919062000280565b5060010162000259565b5090565b5080546200028e90620005ed565b6000825580601f10620002a25750620002c3565b601f016020900490600052602060002090810190620002c29190620002c6565b5b50565b5b80821115620002e1576000816000905550600101620002c7565b5090565b6000604051905090565b600080fd5b600080fd5b600080fd5b6000601f19601f8301169050919050565b7f4e487b7100000000000000000000000000000000000000000000000000000000600052604160045260246000fd5b6200034982620002fe565b810181811067ffffffffffffffff821117156200036b576200036a6200030f565b5b80604052505050565b600062000380620002e5565b90506200038e82826200033e565b919050565b600067ffffffffffffffff821115620003b157620003b06200030f565b5b602082029050919050565b600080fd5b600080fd5b600067ffffffffffffffff821115620003e457620003e36200030f565b5b620003ef82620002fe565b9050602081019050919050565b60005b838110156200041c578082015181840152602081019050620003ff565b60008484015250505050565b60006200043f6200043984620003c6565b62000374565b9050828152602081018484840111156200045e576200045d620003c1565b5b6200046b848285620003fc565b509392505050565b600082601f8301126200048b576200048a620002f9565b5b81516200049d84826020860162000428565b91505092915050565b6000620004bd620004b78462000393565b62000374565b90508060208402830185811115620004da57620004d9620003bc565b5b835b818110156200052857805167ffffffffffffffff811115620005035762000502620002f9565b5b80860162000512898262000473565b85526020850194505050602081019050620004dc565b5050509392505050565b600082601f8301126200054a5762000549620002f9565b5b601762000559848285620004a6565b91505092915050565b6000602082840312156200057b576200057a620002ef565b5b600082015167ffffffffffffffff8111156200059c576200059b620002f4565b5b620005aa8482850162000532565b91505092915050565b600081519050919050565b7f4e487b7100000000000000000000000000000000000000000000000000000000600052602260045260246000fd5b600060028204905060018216806200060657607f821691505b6020821081036200061c576200061b620005be565b5b50919050565b60008190508160005260206000209050919050565b60006020601f8301049050919050565b600082821b905092915050565b600060088302620006867fffffffffffffffffffffffffffffffffffffffffffffffffffffffffffffffff8262000647565b62000692868362000647565b95508019841693508086168417925050509392505050565b6000819050919050565b6000819050919050565b6000620006df620006d9620006d384620006aa565b620006b4565b620006aa565b9050919050565b6000819050919050565b620006fb83620006be565b620007136200070a82620006e6565b84845462000654565b825550505050565b600090565b6200072a6200071b565b62000737818484620006f0565b505050565b5b818110156200075f576200075360008262000720565b6001810190506200073d565b5050565b601f821115620007ae57620007788162000622565b620007838462000637565b8101602085101562000793578190505b620007ab620007a28562000637565b8301826200073c565b50505b505050565b600082821c905092915050565b6000620007d360001984600802620007b3565b1980831691505092915050565b6000620007ee8383620007c0565b9150826002028217905092915050565b6200080982620005b3565b67ffffffffffffffff8111156200082557620008246200030f565b5b620008318254620005ed565b6200083e82828562000763565b600060209050601f83116001811462000876576000841562000861578287015190505b6200086d8582620007e0565b865550620008dd565b601f198416620008868662000622565b60005b82811015620008b05784890151825560018201915060208501945060208101905062000889565b86831015620008d05784890151620008cc601f891682620007c0565b8355505b6001600288020188555050505b505050505050565b60805160a05160c0516139f36200092a60003960008181610d4b01526110c00152600081816108bd0152610c9e0152600081816109470152610db901526139f36000f3fe6080604052600436106101665760003560e01c806370a08231116100d1578063b88d4fde1161008a578063d7bf81a311610064578063d7bf81a314610509578063e985e9c514610534578063f0293fd314610571578063f2fde38b146105ae57610166565b8063b88d4fde1461047a578063c45580d4146104a3578063c87b56dd146104cc57610166565b806370a082311461038b578063715018a6146103c85780638da5cb5b146103df57806395d89b411461040a578063a0712d6814610435578063a22cb4651461045157610166565b806318160ddd1161012357806318160ddd1461028f57806323b872dd146102ba57806332cb6b0c146102e35780633ccfd60b1461030e57806342842e0e146103255780636352211e1461034e57610166565b80630116bc2d1461016b57806301ffc9a71461019657806306fdde03146101d3578063081812fc146101fe578063095ea7b31461023b5780630f2cdd6c14610264575b600080fd5b34801561017757600080fd5b506101806105d7565b60405161018d9190612445565b60405180910390f35b3480156101a257600080fd5b506101bd60048036038101906101b891906124cc565b6105ea565b6040516101ca9190612445565b60405180910390f35b3480156101df57600080fd5b506101e86106cc565b6040516101f59190612589565b60405180910390f35b34801561020a57600080fd5b50610225600480360381019061022091906125e1565b61075e565b604051610232919061264f565b60405180910390f35b34801561024757600080fd5b50610262600480360381019061025d9190612696565b6107a4565b005b34801561027057600080fd5b506102796108bb565b60405161028691906126e5565b60405180910390f35b34801561029b57600080fd5b506102a46108df565b6040516102b191906126e5565b60405180910390f35b3480156102c657600080fd5b506102e160048036038101906102dc9190612700565b6108e5565b005b3480156102ef57600080fd5b506102f8610945565b60405161030591906126e5565b60405180910390f35b34801561031a57600080fd5b50610323610969565b005b34801561033157600080fd5b5061034c60048036038101906103479190612700565b610a20565b005b34801561035a57600080fd5b50610375600480360381019061037091906125e1565b610a40565b604051610382919061264f565b60405180910390f35b34801561039757600080fd5b506103b260048036038101906103ad9190612753565b610ac6565b6040516103bf91906126e5565b60405180910390f35b3480156103d457600080fd5b506103dd610b7d565b005b3480156103eb57600080fd5b506103f4610b91565b604051610401919061264f565b60405180910390f35b34801561041657600080fd5b5061041f610bbb565b60405161042c9190612589565b60405180910390f35b61044f600480360381019061044a91906125e1565b610c4d565b005b34801561045d57600080fd5b50610478600480360381019061047391906127ac565b610fc7565b005b34801561048657600080fd5b506104a1600480360381019061049c9190612921565b610fdd565b005b3480156104af57600080fd5b506104ca60048036038101906104c591906129a4565b61103f565b005b3480156104d857600080fd5b506104f360048036038101906104ee91906125e1565b611064565b6040516105009190612589565b60405180910390f35b34801561051557600080fd5b5061051e6110be565b60405161052b91906126e5565b60405180910390f35b34801561054057600080fd5b5061055b600480360381019061055691906129d1565b6110e2565b6040516105689190612445565b60405180910390f35b34801561057d57600080fd5b5061059860048036038101906105939190612753565b611176565b6040516105a591906126e5565b60405180910390f35b3480156105ba57600080fd5b506105d560048036038101906105d09190612753565b61118e565b005b600960009054906101000a900460ff1681565b60007f80ac58cd000000000000000000000000000000000000000000000000000000007bffffffffffffffffffffffffffffffffffffffffffffffffffffffff1916827bffffffffffffffffffffffffffffffffffffffffffffffffffffffff191614806106b557507f5b5e139f000000000000000000000000000000000000000000000000000000007bffffffffffffffffffffffffffffffffffffffffffffffffffffffff1916827bffffffffffffffffffffffffffffffffffffffffffffffffffffffff1916145b806106c557506106c482611211565b5b9050919050565b6060600080546106db90612a40565b80601f016020809104026020016040519081016040528092919081815260200182805461070790612a40565b80156107545780601f1061072957610100808354040283529160200191610754565b820191906000526020600020905b81548152906001019060200180831161073757829003601f168201915b5050505050905090565b60006107698261127b565b6004600083815260200190815260200160002060009054906101000a900473ffffffffffffffffffffffffffffffffffffffff169050919050565b60006107af82610a40565b90508073ffffffffffffffffffffffffffffffffffffffff168373ffffffffffffffffffffffffffffffffffffffff160361081f576040517f08c379a000000000000000000000000000000000000000000000000000000000815260040161081690612ae3565b60405180910390fd5b8073ffffffffffffffffffffffffffffffffffffffff1661083e6112c6565b73ffffffffffffffffffffffffffffffffffffffff16148061086d575061086c816108676112c6565b6110e2565b5b6108ac576040517f08c379a00000000000000000000000000000000000000000000000000000000081526004016108a390612b75565b60405180910390fd5b6108b683836112ce565b505050565b7f000000000000000000000000000000000000000000000000000000000000000081565b60085481565b6108f66108f06112c6565b82611387565b610935576040517f08c379a000000000000000000000000000000000000000000000000000000000815260040161092c90612c07565b60405180910390fd5b61094083838361141c565b505050565b7f000000000000000000000000000000000000000000000000000000000000000081565b610971611715565b60003373ffffffffffffffffffffffffffffffffffffffff164760405161099790612c58565b60006040518083038185875af1925050503d80600081146109d4576040519150601f19603f3d011682016040523d82523d6000602084013e6109d9565b606091505b5050905080610a1d576040517f08c379a0000000000000000000000000000000000000000000000000000000008152600401610a1490612cb9565b60405180910390fd5b50565b610a3b83838360405180602001604052806000815250610fdd565b505050565b600080610a4c83611793565b9050600073ffffffffffffffffffffffffffffffffffffffff168173ffffffffffffffffffffffffffffffffffffffff1603610abd576040517f08c379a0000000000000000000000000000000000000000000000000000000008152600401610ab490612d25565b60405180910390fd5b80915050919050565b60008073ffffffffffffffffffffffffffffffffffffffff168273ffffffffffffffffffffffffffffffffffffffff1603610b36576040517f08c379a0000000000000000000000000000000000000000000000000000000008152600401610b2d90612db7565b60405180910390fd5b600360008373ffffffffffffffffffffffffffffffffffffffff1673ffffffffffffffffffffffffffffffffffffffff168152602001908152602001600020549050919050565b610b85611715565b610b8f60006117d0565b565b6000600760009054906101000a900473ffffffffffffffffffffffffffffffffffffffff16905090565b606060018054610bca90612a40565b80601f0160208091040260200160405190810160405280929190818152602001828054610bf690612a40565b8015610c435780601f10610c1857610100808354040283529160200191610c43565b820191906000526020600020905b815481529060010190602001808311610c2657829003601f168201915b5050505050905090565b600960009054906101000a900460ff16610c9c576040517f08c379a0000000000000000000000000000000000000000000000000000000008152600401610c9390612e23565b60405180910390fd5b7f000000000000000000000000000000000000000000000000000000000000000081600b60003373ffffffffffffffffffffffffffffffffffffffff1673ffffffffffffffffffffffffffffffffffffffff16815260200190815260200160002054610d089190612e72565b1115610d49576040517f08c379a0000000000000000000000000000000000000000000000000000000008152600401610d4090612ef2565b60405180910390fd5b7f000000000000000000000000000000000000000000000000000000000000000081610d759190612f12565b341015610db7576040517f08c379a0000000000000000000000000000000000000000000000000000000008152600401610dae90612fa0565b60405180910390fd5b7f000000000000000000000000000000000000000000000000000000000000000081600854610de69190612e72565b1115610e27576040517f08c379a0000000000000000000000000000000000000000000000000000000008152600401610e1e9061300c565b60405180910390fd5b60005b81811015610fc35760006001600854610e439190612e72565b90506001600854610e549190612e72565b6008819055506001600b60003373ffffffffffffffffffffffffffffffffffffffff1673ffffffffffffffffffffffffffffffffffffffff16815260200190815260200160002054610ea69190612e72565b600b60003373ffffffffffffffffffffffffffffffffffffffff1673ffffffffffffffffffffffffffffffffffffffff16815260200190815260200160002081905550610ef33382611896565b610faf81600a600184610f06919061302c565b81548110610f1757610f16613060565b5b906000526020600020018054610f2c90612a40565b80601f0160208091040260200160405190810160405280929190818152602001828054610f5890612a40565b8015610fa55780601f10610f7a57610100808354040283529160200191610fa5565b820191906000526020600020905b815481529060010190602001808311610f8857829003601f168201915b50505050506118b4565b508080610fbb9061308f565b915050610e2a565b5050565b610fd9610fd26112c6565b8383611921565b5050565b610fee610fe86112c6565b83611387565b61102d576040517f08c379a000000000000000000000000000000000000000000000000000000000815260040161102490612c07565b60405180910390fd5b61103984848484611a8d565b50505050565b611047611715565b80600960006101000a81548160ff02191690831515021790555050565b606061106f82611ae9565b6110ae576040517f08c379a00000000000000000000000000000000000000000000000000000000081526004016110a590613123565b60405180910390fd5b6110b782611b2a565b9050919050565b7f000000000000000000000000000000000000000000000000000000000000000081565b6000600560008473ffffffffffffffffffffffffffffffffffffffff1673ffffffffffffffffffffffffffffffffffffffff16815260200190815260200160002060008373ffffffffffffffffffffffffffffffffffffffff1673ffffffffffffffffffffffffffffffffffffffff16815260200190815260200160002060009054906101000a900460ff16905092915050565b600b6020528060005260406000206000915090505481565b611196611715565b600073ffffffffffffffffffffffffffffffffffffffff168173ffffffffffffffffffffffffffffffffffffffff1603611205576040517f08c379a00000000000000000000000000000000000000000000000000000000081526004016111fc906131b5565b60405180910390fd5b61120e816117d0565b50565b60007f01ffc9a7000000000000000000000000000000000000000000000000000000007bffffffffffffffffffffffffffffffffffffffffffffffffffffffff1916827bffffffffffffffffffffffffffffffffffffffffffffffffffffffff1916149050919050565b61128481611ae9565b6112c3576040517f08c379a00000000000000000000000000000000000000000000000000000000081526004016112ba90612d25565b60405180910390fd5b50565b600033905090565b816004600083815260200190815260200160002060006101000a81548173ffffffffffffffffffffffffffffffffffffffff021916908373ffffffffffffffffffffffffffffffffffffffff160217905550808273ffffffffffffffffffffffffffffffffffffffff1661134183610a40565b73ffffffffffffffffffffffffffffffffffffffff167f8c5be1e5ebec7d5bd14f71427d1e84f3dd0314c0f7b2291e5b200ac8c7c3b92560405160405180910390a45050565b60008061139383610a40565b90508073ffffffffffffffffffffffffffffffffffffffff168473ffffffffffffffffffffffffffffffffffffffff1614806113d557506113d481856110e2565b5b8061141357508373ffffffffffffffffffffffffffffffffffffffff166113fb8461075e565b73ffffffffffffffffffffffffffffffffffffffff16145b91505092915050565b8273ffffffffffffffffffffffffffffffffffffffff1661143c82610a40565b73ffffffffffffffffffffffffffffffffffffffff1614611492576040517f08c379a000000000000000000000000000000000000000000000000000000000815260040161148990613247565b60405180910390fd5b600073ffffffffffffffffffffffffffffffffffffffff168273ffffffffffffffffffffffffffffffffffffffff1603611501576040517f08c379a00000000000000000000000000000000000000000000000000000000081526004016114f8906132d9565b60405180910390fd5b61150e8383836001611c3c565b8273ffffffffffffffffffffffffffffffffffffffff1661152e82610a40565b73ffffffffffffffffffffffffffffffffffffffff1614611584576040517f08c379a000000000000000000000000000000000000000000000000000000000815260040161157b90613247565b60405180910390fd5b6004600082815260200190815260200160002060006101000a81549073ffffffffffffffffffffffffffffffffffffffff02191690556001600360008573ffffffffffffffffffffffffffffffffffffffff1673ffffffffffffffffffffffffffffffffffffffff168152602001908152602001600020600082825403925050819055506001600360008473ffffffffffffffffffffffffffffffffffffffff1673ffffffffffffffffffffffffffffffffffffffff16815260200190815260200160002060008282540192505081905550816002600083815260200190815260200160002060006101000a81548173ffffffffffffffffffffffffffffffffffffffff021916908373ffffffffffffffffffffffffffffffffffffffff160217905550808273ffffffffffffffffffffffffffffffffffffffff168473ffffffffffffffffffffffffffffffffffffffff167fddf252ad1be2c89b69c2b068fc378daa952ba7f163c4a11628f55a4df523b3ef60405160405180910390a46117108383836001611d62565b505050565b61171d6112c6565b73ffffffffffffffffffffffffffffffffffffffff1661173b610b91565b73ffffffffffffffffffffffffffffffffffffffff1614611791576040517f08c379a000000000000000000000000000000000000000000000000000000000815260040161178890613345565b60405180910390fd5b565b60006002600083815260200190815260200160002060009054906101000a900473ffffffffffffffffffffffffffffffffffffffff169050919050565b6000600760009054906101000a900473ffffffffffffffffffffffffffffffffffffffff16905081600760006101000a81548173ffffffffffffffffffffffffffffffffffffffff021916908373ffffffffffffffffffffffffffffffffffffffff1602179055508173ffffffffffffffffffffffffffffffffffffffff168173ffffffffffffffffffffffffffffffffffffffff167f8be0079c531659141344cd1fd0a4f28419497f9722a3daafe3b4186f6b6457e060405160405180910390a35050565b6118b0828260405180602001604052806000815250611d68565b5050565b6118bd82611ae9565b6118fc576040517f08c379a00000000000000000000000000000000000000000000000000000000081526004016118f3906133d7565b60405180910390fd5b8060066000848152602001908152602001600020908161191c91906135a3565b505050565b8173ffffffffffffffffffffffffffffffffffffffff168373ffffffffffffffffffffffffffffffffffffffff160361198f576040517f08c379a0000000000000000000000000000000000000000000000000000000008152600401611986906136c1565b60405180910390fd5b80600560008573ffffffffffffffffffffffffffffffffffffffff1673ffffffffffffffffffffffffffffffffffffffff16815260200190815260200160002060008473ffffffffffffffffffffffffffffffffffffffff1673ffffffffffffffffffffffffffffffffffffffff16815260200190815260200160002060006101000a81548160ff0219169083151502179055508173ffffffffffffffffffffffffffffffffffffffff168373ffffffffffffffffffffffffffffffffffffffff167f17307eab39ab6107e8899845ad3d59bd9653f200f220920489ca2b5937696c3183604051611a809190612445565b60405180910390a3505050565b611a9884848461141c565b611aa484848484611dc3565b611ae3576040517f08c379a0000000000000000000000000000000000000000000000000000000008152600401611ada90613753565b60405180910390fd5b50505050565b60008073ffffffffffffffffffffffffffffffffffffffff16611b0b83611793565b73ffffffffffffffffffffffffffffffffffffffff1614159050919050565b6060611b358261127b565b6000600660008481526020019081526020016000208054611b5590612a40565b80601f0160208091040260200160405190810160405280929190818152602001828054611b8190612a40565b8015611bce5780601f10611ba357610100808354040283529160200191611bce565b820191906000526020600020905b815481529060010190602001808311611bb157829003601f168201915b505050505090506000611bdf611f4a565b90506000815103611bf4578192505050611c37565b600082511115611c29578082604051602001611c119291906137af565b60405160208183030381529060405292505050611c37565b611c3284611f61565b925050505b919050565b6001811115611d5c57600073ffffffffffffffffffffffffffffffffffffffff168473ffffffffffffffffffffffffffffffffffffffff1614611cd05780600360008673ffffffffffffffffffffffffffffffffffffffff1673ffffffffffffffffffffffffffffffffffffffff1681526020019081526020016000206000828254611cc8919061302c565b925050819055505b600073ffffffffffffffffffffffffffffffffffffffff168373ffffffffffffffffffffffffffffffffffffffff1614611d5b5780600360008573ffffffffffffffffffffffffffffffffffffffff1673ffffffffffffffffffffffffffffffffffffffff1681526020019081526020016000206000828254611d539190612e72565b925050819055505b5b50505050565b50505050565b611d728383611fc9565b611d7f6000848484611dc3565b611dbe576040517f08c379a0000000000000000000000000000000000000000000000000000000008152600401611db590613753565b60405180910390fd5b505050565b6000611de48473ffffffffffffffffffffffffffffffffffffffff166121e6565b15611f3d578373ffffffffffffffffffffffffffffffffffffffff1663150b7a02611e0d6112c6565b8786866040518563ffffffff1660e01b8152600401611e2f9493929190613828565b6020604051808303816000875af1925050508015611e6b57506040513d601f19601f82011682018060405250810190611e689190613889565b60015b611eed573d8060008114611e9b576040519150601f19603f3d011682016040523d82523d6000602084013e611ea0565b606091505b506000815103611ee5576040517f08c379a0000000000000000000000000000000000000000000000000000000008152600401611edc90613753565b60405180910390fd5b805181602001fd5b63150b7a0260e01b7bffffffffffffffffffffffffffffffffffffffffffffffffffffffff1916817bffffffffffffffffffffffffffffffffffffffffffffffffffffffff191614915050611f42565b600190505b949350505050565b606060405180602001604052806000815250905090565b6060611f6c8261127b565b6000611f76611f4a565b90506000815111611f965760405180602001604052806000815250611fc1565b80611fa084612209565b604051602001611fb19291906137af565b6040516020818303038152906040525b915050919050565b600073ffffffffffffffffffffffffffffffffffffffff168273ffffffffffffffffffffffffffffffffffffffff1603612038576040517f08c379a000000000000000000000000000000000000000000000000000000000815260040161202f90613902565b60405180910390fd5b61204181611ae9565b15612081576040517f08c379a00000000000000000000000000000000000000000000000000000000081526004016120789061396e565b60405180910390fd5b61208f600083836001611c3c565b61209881611ae9565b156120d8576040517f08c379a00000000000000000000000000000000000000000000000000000000081526004016120cf9061396e565b60405180910390fd5b6001600360008473ffffffffffffffffffffffffffffffffffffffff1673ffffffffffffffffffffffffffffffffffffffff16815260200190815260200160002060008282540192505081905550816002600083815260200190815260200160002060006101000a81548173ffffffffffffffffffffffffffffffffffffffff021916908373ffffffffffffffffffffffffffffffffffffffff160217905550808273ffffffffffffffffffffffffffffffffffffffff16600073ffffffffffffffffffffffffffffffffffffffff167fddf252ad1be2c89b69c2b068fc378daa952ba7f163c4a11628f55a4df523b3ef60405160405180910390a46121e2600083836001611d62565b5050565b6000808273ffffffffffffffffffffffffffffffffffffffff163b119050919050565b606060006001612218846122d7565b01905060008167ffffffffffffffff811115612237576122366127f6565b5b6040519080825280601f01601f1916602001820160405280156122695781602001600182028036833780820191505090505b509050600082602001820190505b6001156122cc578080600190039150507f3031323334353637383961626364656600000000000000000000000000000000600a86061a8153600a85816122c0576122bf61398e565b5b04945060008503612277575b819350505050919050565b600080600090507a184f03e93ff9f4daa797ed6e38ed64bf6a1f0100000000000000008310612335577a184f03e93ff9f4daa797ed6e38ed64bf6a1f010000000000000000838161232b5761232a61398e565b5b0492506040810190505b6d04ee2d6d415b85acef81000000008310612372576d04ee2d6d415b85acef810000000083816123685761236761398e565b5b0492506020810190505b662386f26fc1000083106123a157662386f26fc1000083816123975761239661398e565b5b0492506010810190505b6305f5e10083106123ca576305f5e10083816123c0576123bf61398e565b5b0492506008810190505b61271083106123ef5761271083816123e5576123e461398e565b5b0492506004810190505b6064831061241257606483816124085761240761398e565b5b0492506002810190505b600a8310612421576001810190505b80915050919050565b60008115159050919050565b61243f8161242a565b82525050565b600060208201905061245a6000830184612436565b92915050565b6000604051905090565b600080fd5b600080fd5b60007fffffffff0000000000000000000000000000000000000000000000000000000082169050919050565b6124a981612474565b81146124b457600080fd5b50565b6000813590506124c6816124a0565b92915050565b6000602082840312156124e2576124e161246a565b5b60006124f0848285016124b7565b91505092915050565b600081519050919050565b600082825260208201905092915050565b60005b83811015612533578082015181840152602081019050612518565b60008484015250505050565b6000601f19601f8301169050919050565b600061255b826124f9565b6125658185612504565b9350612575818560208601612515565b61257e8161253f565b840191505092915050565b600060208201905081810360008301526125a38184612550565b905092915050565b6000819050919050565b6125be816125ab565b81146125c957600080fd5b50565b6000813590506125db816125b5565b92915050565b6000602082840312156125f7576125f661246a565b5b6000612605848285016125cc565b91505092915050565b600073ffffffffffffffffffffffffffffffffffffffff82169050919050565b60006126398261260e565b9050919050565b6126498161262e565b82525050565b60006020820190506126646000830184612640565b92915050565b6126738161262e565b811461267e57600080fd5b50565b6000813590506126908161266a565b92915050565b600080604083850312156126ad576126ac61246a565b5b60006126bb85828601612681565b92505060206126cc858286016125cc565b9150509250929050565b6126df816125ab565b82525050565b60006020820190506126fa60008301846126d6565b92915050565b6000806000606084860312156127195761271861246a565b5b600061272786828701612681565b935050602061273886828701612681565b9250506040612749868287016125cc565b9150509250925092565b6000602082840312156127695761276861246a565b5b600061277784828501612681565b91505092915050565b6127898161242a565b811461279457600080fd5b50565b6000813590506127a681612780565b92915050565b600080604083850312156127c3576127c261246a565b5b60006127d185828601612681565b92505060206127e285828601612797565b9150509250929050565b600080fd5b600080fd5b7f4e487b7100000000000000000000000000000000000000000000000000000000600052604160045260246000fd5b61282e8261253f565b810181811067ffffffffffffffff8211171561284d5761284c6127f6565b5b80604052505050565b6000612860612460565b905061286c8282612825565b919050565b600067ffffffffffffffff82111561288c5761288b6127f6565b5b6128958261253f565b9050602081019050919050565b82818337600083830152505050565b60006128c46128bf84612871565b612856565b9050828152602081018484840111156128e0576128df6127f1565b5b6128eb8482856128a2565b509392505050565b600082601f830112612908576129076127ec565b5b81356129188482602086016128b1565b91505092915050565b6000806000806080858703121561293b5761293a61246a565b5b600061294987828801612681565b945050602061295a87828801612681565b935050604061296b878288016125cc565b925050606085013567ffffffffffffffff81111561298c5761298b61246f565b5b612998878288016128f3565b91505092959194509250565b6000602082840312156129ba576129b961246a565b5b60006129c884828501612797565b91505092915050565b600080604083850312156129e8576129e761246a565b5b60006129f685828601612681565b9250506020612a0785828601612681565b9150509250929050565b7f4e487b7100000000000000000000000000000000000000000000000000000000600052602260045260246000fd5b60006002820490506001821680612a5857607f821691505b602082108103612a6b57612a6a612a11565b5b50919050565b7f4552433732313a20617070726f76616c20746f2063757272656e74206f776e6560008201527f7200000000000000000000000000000000000000000000000000000000000000602082015250565b6000612acd602183612504565b9150612ad882612a71565b604082019050919050565b60006020820190508181036000830152612afc81612ac0565b9050919050565b7f4552433732313a20617070726f76652063616c6c6572206973206e6f7420746f60008201527f6b656e206f776e6572206f7220617070726f76656420666f7220616c6c000000602082015250565b6000612b5f603d83612504565b9150612b6a82612b03565b604082019050919050565b60006020820190508181036000830152612b8e81612b52565b9050919050565b7f4552433732313a2063616c6c6572206973206e6f7420746f6b656e206f776e6560008201527f72206f7220617070726f76656400000000000000000000000000000000000000602082015250565b6000612bf1602d83612504565b9150612bfc82612b95565b604082019050919050565b60006020820190508181036000830152612c2081612be4565b9050919050565b600081905092915050565b50565b6000612c42600083612c27565b9150612c4d82612c32565b600082019050919050565b6000612c6382612c35565b9150819050919050565b7f5769746864726177206661696c65642100000000000000000000000000000000600082015250565b6000612ca3601083612504565b9150612cae82612c6d565b602082019050919050565b60006020820190508181036000830152612cd281612c96565b9050919050565b7f4552433732313a20696e76616c696420746f6b656e2049440000000000000000600082015250565b6000612d0f601883612504565b9150612d1a82612cd9565b602082019050919050565b60006020820190508181036000830152612d3e81612d02565b9050919050565b7f4552433732313a2061646472657373207a65726f206973206e6f74206120766160008201527f6c6964206f776e65720000000000000000000000000000000000000000000000602082015250565b6000612da1602983612504565b9150612dac82612d45565b604082019050919050565b60006020820190508181036000830152612dd081612d94565b9050919050565b7f4d696e74696e67206e6f7420656e61626c656400000000000000000000000000600082015250565b6000612e0d601383612504565b9150612e1882612dd7565b602082019050919050565b60006020820190508181036000830152612e3c81612e00565b9050919050565b7f4e487b7100000000000000000000000000000000000000000000000000000000600052601160045260246000fd5b6000612e7d826125ab565b9150612e88836125ab565b9250828201905080821115612ea057612e9f612e43565b5b92915050565b7f4578636565646564206d6178207065722077616c6c6574000000000000000000600082015250565b6000612edc601783612504565b9150612ee782612ea6565b602082019050919050565b60006020820190508181036000830152612f0b81612ecf565b9050919050565b6000612f1d826125ab565b9150612f28836125ab565b9250828202612f36816125ab565b91508282048414831517612f4d57612f4c612e43565b5b5092915050565b7f4e6f7420656e6f75676820657468657220666f72206d696e7400000000000000600082015250565b6000612f8a601983612504565b9150612f9582612f54565b602082019050919050565b60006020820190508181036000830152612fb981612f7d565b9050919050565b7f536f6c64206f7574000000000000000000000000000000000000000000000000600082015250565b6000612ff6600883612504565b915061300182612fc0565b602082019050919050565b6000602082019050818103600083015261302581612fe9565b9050919050565b6000613037826125ab565b9150613042836125ab565b925082820390508181111561305a57613059612e43565b5b92915050565b7f4e487b7100000000000000000000000000000000000000000000000000000000600052603260045260246000fd5b600061309a826125ab565b91507fffffffffffffffffffffffffffffffffffffffffffffffffffffffffffffffff82036130cc576130cb612e43565b5b600182019050919050565b7f546f6b656e20646f6573206e6f74206578697374210000000000000000000000600082015250565b600061310d601583612504565b9150613118826130d7565b602082019050919050565b6000602082019050818103600083015261313c81613100565b9050919050565b7f4f776e61626c653a206e6577206f776e657220697320746865207a65726f206160008201527f6464726573730000000000000000000000000000000000000000000000000000602082015250565b600061319f602683612504565b91506131aa82613143565b604082019050919050565b600060208201905081810360008301526131ce81613192565b9050919050565b7f4552433732313a207472616e736665722066726f6d20696e636f72726563742060008201527f6f776e6572000000000000000000000000000000000000000000000000000000602082015250565b6000613231602583612504565b915061323c826131d5565b604082019050919050565b6000602082019050818103600083015261326081613224565b9050919050565b7f4552433732313a207472616e7366657220746f20746865207a65726f2061646460008201527f7265737300000000000000000000000000000000000000000000000000000000602082015250565b60006132c3602483612504565b91506132ce82613267565b604082019050919050565b600060208201905081810360008301526132f2816132b6565b9050919050565b7f4f776e61626c653a2063616c6c6572206973206e6f7420746865206f776e6572600082015250565b600061332f602083612504565b915061333a826132f9565b602082019050919050565b6000602082019050818103600083015261335e81613322565b9050919050565b7f45524337323155524953746f726167653a2055524920736574206f66206e6f6e60008201527f6578697374656e7420746f6b656e000000000000000000000000000000000000602082015250565b60006133c1602e83612504565b91506133cc82613365565b604082019050919050565b600060208201905081810360008301526133f0816133b4565b9050919050565b60008190508160005260206000209050919050565b60006020601f8301049050919050565b600082821b905092915050565b6000600883026134597fffffffffffffffffffffffffffffffffffffffffffffffffffffffffffffffff8261341c565b613463868361341c565b95508019841693508086168417925050509392505050565b6000819050919050565b60006134a061349b613496846125ab565b61347b565b6125ab565b9050919050565b6000819050919050565b6134ba83613485565b6134ce6134c6826134a7565b848454613429565b825550505050565b600090565b6134e36134d6565b6134ee8184846134b1565b505050565b5b81811015613512576135076000826134db565b6001810190506134f4565b5050565b601f82111561355757613528816133f7565b6135318461340c565b81016020851015613540578190505b61355461354c8561340c565b8301826134f3565b50505b505050565b600082821c905092915050565b600061357a6000198460080261355c565b1980831691505092915050565b60006135938383613569565b9150826002028217905092915050565b6135ac826124f9565b67ffffffffffffffff8111156135c5576135c46127f6565b5b6135cf8254612a40565b6135da828285613516565b600060209050601f83116001811461360d57600084156135fb578287015190505b6136058582613587565b86555061366d565b601f19841661361b866133f7565b60005b828110156136435784890151825560018201915060208501945060208101905061361e565b86831015613660578489015161365c601f891682613569565b8355505b6001600288020188555050505b505050505050565b7f4552433732313a20617070726f766520746f2063616c6c657200000000000000600082015250565b60006136ab601983612504565b91506136b682613675565b602082019050919050565b600060208201905081810360008301526136da8161369e565b9050919050565b7f4552433732313a207472616e7366657220746f206e6f6e20455243373231526560008201527f63656976657220696d706c656d656e7465720000000000000000000000000000602082015250565b600061373d603283612504565b9150613748826136e1565b604082019050919050565b6000602082019050818103600083015261376c81613730565b9050919050565b600081905092915050565b6000613789826124f9565b6137938185613773565b93506137a3818560208601612515565b80840191505092915050565b60006137bb828561377e565b91506137c7828461377e565b91508190509392505050565b600081519050919050565b600082825260208201905092915050565b60006137fa826137d3565b61380481856137de565b9350613814818560208601612515565b61381d8161253f565b840191505092915050565b600060808201905061383d6000830187612640565b61384a6020830186612640565b61385760408301856126d6565b818103606083015261386981846137ef565b905095945050505050565b600081519050613883816124a0565b92915050565b60006020828403121561389f5761389e61246a565b5b60006138ad84828501613874565b91505092915050565b7f4552433732313a206d696e7420746f20746865207a65726f2061646472657373600082015250565b60006138ec602083612504565b91506138f7826138b6565b602082019050919050565b6000602082019050818103600083015261391b816138df565b9050919050565b7f4552433732313a20746f6b656e20616c7265616479206d696e74656400000000600082015250565b6000613958601c83612504565b915061396382613922565b602082019050919050565b600060208201905081810360008301526139878161394b565b9050919050565b7f4e487b7100000000000000000000000000000000000000000000000000000000600052601260045260246000fdfea2646970667358221220252a80e36487d2c9330293eb132b1fb81297f0aad57bd2c33901df06af9f6ced64736f6c63430008110033",
  "linkReferences": {},
  "deployedLinkReferences": {}
}