{
  "_format": "hh-sol-artifact-1",
  "contractName": "CharityPets",
  "sourceName": "contracts/CharityPets.sol",
  "abi": [
    {
      "inputs": [
        {
          "internalType": "string[50]",
          "name": "petsTokensUris",
          "type": "string[50]"
        }
      ],
      "stateMutability": "nonpayable",
      "type": "constructor"
    },
    {
      "anonymous": false,
      "inputs": [
        {
          "indexed": true,
          "internalType": "address",
          "name": "owner",
          "type": "address"
        },
        {
          "indexed": true,
          "internalType": "address",
          "name": "approved",
          "type": "address"
        },
        {
          "indexed": true,
          "internalType": "uint256",
          "name": "tokenId",
          "type": "uint256"
        }
      ],
      "name": "Approval",
      "type": "event"
    },
    {
      "anonymous": false,
      "inputs": [
        {
          "indexed": true,
          "internalType": "address",
          "name": "owner",
          "type": "address"
        },
        {
          "indexed": true,
          "internalType": "address",
          "name": "operator",
          "type": "address"
        },
        {
          "indexed": false,
          "internalType": "bool",
          "name": "approved",
          "type": "bool"
        }
      ],
      "name": "ApprovalForAll",
      "type": "event"
    },
    {
      "anonymous": false,
      "inputs": [
        {
          "indexed": true,
          "internalType": "address",
          "name": "previousOwner",
          "type": "address"
        },
        {
          "indexed": true,
          "internalType": "address",
          "name": "newOwner",
          "type": "address"
        }
      ],
      "name": "OwnershipTransferred",
      "type": "event"
    },
    {
      "anonymous": false,
      "inputs": [
        {
          "indexed": true,
          "internalType": "address",
          "name": "from",
          "type": "address"
        },
        {
          "indexed": true,
          "internalType": "address",
          "name": "to",
          "type": "address"
        },
        {
          "indexed": true,
          "internalType": "uint256",
          "name": "tokenId",
          "type": "uint256"
        }
      ],
      "name": "Transfer",
      "type": "event"
    },
    {
      "inputs": [],
      "name": "MAX_PER_WALLET",
      "outputs": [
        {
          "internalType": "uint256",
          "name": "",
          "type": "uint256"
        }
      ],
      "stateMutability": "view",
      "type": "function"
    },
    {
      "inputs": [],
      "name": "MAX_SUPPLY",
      "outputs": [
        {
          "internalType": "uint256",
          "name": "",
          "type": "uint256"
        }
      ],
      "stateMutability": "view",
      "type": "function"
    },
    {
      "inputs": [],
      "name": "MINT_FEE",
      "outputs": [
        {
          "internalType": "uint256",
          "name": "",
          "type": "uint256"
        }
      ],
      "stateMutability": "view",
      "type": "function"
    },
    {
      "inputs": [
        {
          "internalType": "address",
          "name": "to",
          "type": "address"
        },
        {
          "internalType": "uint256",
          "name": "tokenId",
          "type": "uint256"
        }
      ],
      "name": "approve",
      "outputs": [],
      "stateMutability": "nonpayable",
      "type": "function"
    },
    {
      "inputs": [
        {
          "internalType": "address",
          "name": "owner",
          "type": "address"
        }
      ],
      "name": "balanceOf",
      "outputs": [
        {
          "internalType": "uint256",
          "name": "",
          "type": "uint256"
        }
      ],
      "stateMutability": "view",
      "type": "function"
    },
    {
      "inputs": [
        {
          "internalType": "uint256",
          "name": "tokenId",
          "type": "uint256"
        }
      ],
      "name": "getApproved",
      "outputs": [
        {
          "internalType": "address",
          "name": "",
          "type": "address"
        }
      ],
      "stateMutability": "view",
      "type": "function"
    },
    {
      "inputs": [
        {
          "internalType": "address",
          "name": "owner",
          "type": "address"
        },
        {
          "internalType": "address",
          "name": "operator",
          "type": "address"
        }
      ],
      "name": "isApprovedForAll",
      "outputs": [
        {
          "internalType": "bool",
          "name": "",
          "type": "bool"
        }
      ],
      "stateMutability": "view",
      "type": "function"
    },
    {
      "inputs": [],
      "name": "isPublicMintEnabled",
      "outputs": [
        {
          "internalType": "bool",
          "name": "",
          "type": "bool"
        }
      ],
      "stateMutability": "view",
      "type": "function"
    },
    {
      "inputs": [
        {
          "internalType": "uint256",
          "name": "amount",
          "type": "uint256"
        }
      ],
      "name": "mint",
      "outputs": [],
      "stateMutability": "payable",
      "type": "function"
    },
    {
      "inputs": [],
      "name": "name",
      "outputs": [
        {
          "internalType": "string",
          "name": "",
          "type": "string"
        }
      ],
      "stateMutability": "view",
      "type": "function"
    },
    {
      "inputs": [],
      "name": "owner",
      "outputs": [
        {
          "internalType": "address",
          "name": "",
          "type": "address"
        }
      ],
      "stateMutability": "view",
      "type": "function"
    },
    {
      "inputs": [
        {
          "internalType": "uint256",
          "name": "tokenId",
          "type": "uint256"
        }
      ],
      "name": "ownerOf",
      "outputs": [
        {
          "internalType": "address",
          "name": "",
          "type": "address"
        }
      ],
      "stateMutability": "view",
      "type": "function"
    },
    {
      "inputs": [],
      "name": "renounceOwnership",
      "outputs": [],
      "stateMutability": "nonpayable",
      "type": "function"
    },
    {
      "inputs": [
        {
          "internalType": "address",
          "name": "from",
          "type": "address"
        },
        {
          "internalType": "address",
          "name": "to",
          "type": "address"
        },
        {
          "internalType": "uint256",
          "name": "tokenId",
          "type": "uint256"
        }
      ],
      "name": "safeTransferFrom",
      "outputs": [],
      "stateMutability": "nonpayable",
      "type": "function"
    },
    {
      "inputs": [
        {
          "internalType": "address",
          "name": "from",
          "type": "address"
        },
        {
          "internalType": "address",
          "name": "to",
          "type": "address"
        },
        {
          "internalType": "uint256",
          "name": "tokenId",
          "type": "uint256"
        },
        {
          "internalType": "bytes",
          "name": "data",
          "type": "bytes"
        }
      ],
      "name": "safeTransferFrom",
      "outputs": [],
      "stateMutability": "nonpayable",
      "type": "function"
    },
    {
      "inputs": [
        {
          "internalType": "address",
          "name": "operator",
          "type": "address"
        },
        {
          "internalType": "bool",
          "name": "approved",
          "type": "bool"
        }
      ],
      "name": "setApprovalForAll",
      "outputs": [],
      "stateMutability": "nonpayable",
      "type": "function"
    },
    {
      "inputs": [
        {
          "internalType": "bool",
          "name": "isEnabled",
          "type": "bool"
        }
      ],
      "name": "setIsPublicMintEnable",
      "outputs": [],
      "stateMutability": "nonpayable",
      "type": "function"
    },
    {
      "inputs": [
        {
          "internalType": "uint256",
          "name": "tokenId",
          "type": "uint256"
        },
        {
          "internalType": "string",
          "name": "newUri",
          "type": "string"
        }
      ],
      "name": "setTokenUri",
      "outputs": [],
      "stateMutability": "nonpayable",
      "type": "function"
    },
    {
      "inputs": [
        {
          "internalType": "bytes4",
          "name": "interfaceId",
          "type": "bytes4"
        }
      ],
      "name": "supportsInterface",
      "outputs": [
        {
          "internalType": "bool",
          "name": "",
          "type": "bool"
        }
      ],
      "stateMutability": "view",
      "type": "function"
    },
    {
      "inputs": [],
      "name": "symbol",
      "outputs": [
        {
          "internalType": "string",
          "name": "",
          "type": "string"
        }
      ],
      "stateMutability": "view",
      "type": "function"
    },
    {
      "inputs": [
        {
          "internalType": "uint256",
          "name": "tokenId",
          "type": "uint256"
        }
      ],
      "name": "tokenURI",
      "outputs": [
        {
          "internalType": "string",
          "name": "",
          "type": "string"
        }
      ],
      "stateMutability": "view",
      "type": "function"
    },
    {
      "inputs": [],
      "name": "totalSupply",
      "outputs": [
        {
          "internalType": "uint256",
          "name": "",
          "type": "uint256"
        }
      ],
      "stateMutability": "view",
      "type": "function"
    },
    {
      "inputs": [
        {
          "internalType": "address",
          "name": "from",
          "type": "address"
        },
        {
          "internalType": "address",
          "name": "to",
          "type": "address"
        },
        {
          "internalType": "uint256",
          "name": "tokenId",
          "type": "uint256"
        }
      ],
      "name": "transferFrom",
      "outputs": [],
      "stateMutability": "nonpayable",
      "type": "function"
    },
    {
      "inputs": [
        {
          "internalType": "address",
          "name": "newOwner",
          "type": "address"
        }
      ],
      "name": "transferOwnership",
      "outputs": [],
      "stateMutability": "nonpayable",
      "type": "function"
    },
    {
      "inputs": [
        {
          "internalType": "address",
          "name": "",
          "type": "address"
        }
      ],
      "name": "walletMints",
      "outputs": [
        {
          "internalType": "uint256",
          "name": "",
          "type": "uint256"
        }
      ],
      "stateMutability": "view",
      "type": "function"
    },
    {
      "inputs": [],
      "name": "withdraw",
      "outputs": [],
      "stateMutability": "nonpayable",
      "type": "function"
    }
  ],
  "bytecode": "0x60e06040526032608090815250600360a090815250671bc16d674ec8000060c0908152503480156200003057600080fd5b506040516200447538038062004475833981810160405281019062000056919062000563565b6040518060400160405280600b81526020017f43686172697479506574730000000000000000000000000000000000000000008152506040518060400160405280600281526020017f43500000000000000000000000000000000000000000000000000000000000008152508160009081620000d39190620007ff565b508060019081620000e59190620007ff565b50505062000108620000fc6200012b60201b60201c565b6200013360201b60201c565b80600a9060326200011b929190620001f9565b50600060088190555050620008e6565b600033905090565b6000600760009054906101000a900473ffffffffffffffffffffffffffffffffffffffff16905081600760006101000a81548173ffffffffffffffffffffffffffffffffffffffff021916908373ffffffffffffffffffffffffffffffffffffffff1602179055508173ffffffffffffffffffffffffffffffffffffffff168173ffffffffffffffffffffffffffffffffffffffff167f8be0079c531659141344cd1fd0a4f28419497f9722a3daafe3b4186f6b6457e060405160405180910390a35050565b82805482825590600052602060002090810192821562000246579160200282015b8281111562000245578251829081620002349190620007ff565b50916020019190600101906200021a565b5b50905062000255919062000259565b5090565b5b808211156200027d576000818162000273919062000281565b506001016200025a565b5090565b5080546200028f90620005ee565b6000825580601f10620002a35750620002c4565b601f016020900490600052602060002090810190620002c39190620002c7565b5b50565b5b80821115620002e2576000816000905550600101620002c8565b5090565b6000604051905090565b600080fd5b600080fd5b600080fd5b6000601f19601f8301169050919050565b7f4e487b7100000000000000000000000000000000000000000000000000000000600052604160045260246000fd5b6200034a82620002ff565b810181811067ffffffffffffffff821117156200036c576200036b62000310565b5b80604052505050565b600062000381620002e6565b90506200038f82826200033f565b919050565b600067ffffffffffffffff821115620003b257620003b162000310565b5b602082029050919050565b600080fd5b600080fd5b600067ffffffffffffffff821115620003e557620003e462000310565b5b620003f082620002ff565b9050602081019050919050565b60005b838110156200041d57808201518184015260208101905062000400565b60008484015250505050565b6000620004406200043a84620003c7565b62000375565b9050828152602081018484840111156200045f576200045e620003c2565b5b6200046c848285620003fd565b509392505050565b600082601f8301126200048c576200048b620002fa565b5b81516200049e84826020860162000429565b91505092915050565b6000620004be620004b88462000394565b62000375565b90508060208402830185811115620004db57620004da620003bd565b5b835b818110156200052957805167ffffffffffffffff811115620005045762000503620002fa565b5b80860162000513898262000474565b85526020850194505050602081019050620004dd565b5050509392505050565b600082601f8301126200054b576200054a620002fa565b5b60326200055a848285620004a7565b91505092915050565b6000602082840312156200057c576200057b620002f0565b5b600082015167ffffffffffffffff8111156200059d576200059c620002f5565b5b620005ab8482850162000533565b91505092915050565b600081519050919050565b7f4e487b7100000000000000000000000000000000000000000000000000000000600052602260045260246000fd5b600060028204905060018216806200060757607f821691505b6020821081036200061d576200061c620005bf565b5b50919050565b60008190508160005260206000209050919050565b60006020601f8301049050919050565b600082821b905092915050565b600060088302620006877fffffffffffffffffffffffffffffffffffffffffffffffffffffffffffffffff8262000648565b62000693868362000648565b95508019841693508086168417925050509392505050565b6000819050919050565b6000819050919050565b6000620006e0620006da620006d484620006ab565b620006b5565b620006ab565b9050919050565b6000819050919050565b620006fc83620006bf565b620007146200070b82620006e7565b84845462000655565b825550505050565b600090565b6200072b6200071c565b62000738818484620006f1565b505050565b5b8181101562000760576200075460008262000721565b6001810190506200073e565b5050565b601f821115620007af57620007798162000623565b620007848462000638565b8101602085101562000794578190505b620007ac620007a38562000638565b8301826200073d565b50505b505050565b600082821c905092915050565b6000620007d460001984600802620007b4565b1980831691505092915050565b6000620007ef8383620007c1565b9150826002028217905092915050565b6200080a82620005b4565b67ffffffffffffffff81111562000826576200082562000310565b5b620008328254620005ee565b6200083f82828562000764565b600060209050601f83116001811462000877576000841562000862578287015190505b6200086e8582620007e1565b865550620008de565b601f198416620008878662000623565b60005b82811015620008b1578489015182556001820191506020850194506020810190506200088a565b86831015620008d15784890151620008cd601f891682620007c1565b8355505b6001600288020188555050505b505050505050565b60805160a05160c051613b4a6200092b60003960008181610da5015261111a0152600081816109010152610cf801526000818161098b0152610e130152613b4a6000f3fe6080604052600436106101815760003560e01c806370a08231116100d1578063b88d4fde1161008a578063d7bf81a311610064578063d7bf81a31461054d578063e985e9c514610578578063f0293fd3146105b5578063f2fde38b146105f257610181565b8063b88d4fde146104be578063c45580d4146104e7578063c87b56dd1461051057610181565b806370a08231146103cf578063715018a61461040c5780638da5cb5b1461042357806395d89b411461044e578063a0712d6814610479578063a22cb4651461049557610181565b806318160ddd1161013e5780633ccfd60b116101185780633ccfd60b1461032957806342842e0e1461034057806357f7789e146103695780636352211e1461039257610181565b806318160ddd146102aa57806323b872dd146102d557806332cb6b0c146102fe57610181565b80630116bc2d1461018657806301ffc9a7146101b157806306fdde03146101ee578063081812fc14610219578063095ea7b3146102565780630f2cdd6c1461027f575b600080fd5b34801561019257600080fd5b5061019b61061b565b6040516101a8919061249f565b60405180910390f35b3480156101bd57600080fd5b506101d860048036038101906101d39190612526565b61062e565b6040516101e5919061249f565b60405180910390f35b3480156101fa57600080fd5b50610203610710565b60405161021091906125e3565b60405180910390f35b34801561022557600080fd5b50610240600480360381019061023b919061263b565b6107a2565b60405161024d91906126a9565b60405180910390f35b34801561026257600080fd5b5061027d600480360381019061027891906126f0565b6107e8565b005b34801561028b57600080fd5b506102946108ff565b6040516102a1919061273f565b60405180910390f35b3480156102b657600080fd5b506102bf610923565b6040516102cc919061273f565b60405180910390f35b3480156102e157600080fd5b506102fc60048036038101906102f7919061275a565b610929565b005b34801561030a57600080fd5b50610313610989565b604051610320919061273f565b60405180910390f35b34801561033557600080fd5b5061033e6109ad565b005b34801561034c57600080fd5b506103676004803603810190610362919061275a565b610a64565b005b34801561037557600080fd5b50610390600480360381019061038b91906128e2565b610a84565b005b34801561039e57600080fd5b506103b960048036038101906103b4919061263b565b610a9a565b6040516103c691906126a9565b60405180910390f35b3480156103db57600080fd5b506103f660048036038101906103f1919061293e565b610b20565b604051610403919061273f565b60405180910390f35b34801561041857600080fd5b50610421610bd7565b005b34801561042f57600080fd5b50610438610beb565b60405161044591906126a9565b60405180910390f35b34801561045a57600080fd5b50610463610c15565b60405161047091906125e3565b60405180910390f35b610493600480360381019061048e919061263b565b610ca7565b005b3480156104a157600080fd5b506104bc60048036038101906104b79190612997565b611021565b005b3480156104ca57600080fd5b506104e560048036038101906104e09190612a78565b611037565b005b3480156104f357600080fd5b5061050e60048036038101906105099190612afb565b611099565b005b34801561051c57600080fd5b506105376004803603810190610532919061263b565b6110be565b60405161054491906125e3565b60405180910390f35b34801561055957600080fd5b50610562611118565b60405161056f919061273f565b60405180910390f35b34801561058457600080fd5b5061059f600480360381019061059a9190612b28565b61113c565b6040516105ac919061249f565b60405180910390f35b3480156105c157600080fd5b506105dc60048036038101906105d7919061293e565b6111d0565b6040516105e9919061273f565b60405180910390f35b3480156105fe57600080fd5b506106196004803603810190610614919061293e565b6111e8565b005b600960009054906101000a900460ff1681565b60007f80ac58cd000000000000000000000000000000000000000000000000000000007bffffffffffffffffffffffffffffffffffffffffffffffffffffffff1916827bffffffffffffffffffffffffffffffffffffffffffffffffffffffff191614806106f957507f5b5e139f000000000000000000000000000000000000000000000000000000007bffffffffffffffffffffffffffffffffffffffffffffffffffffffff1916827bffffffffffffffffffffffffffffffffffffffffffffffffffffffff1916145b8061070957506107088261126b565b5b9050919050565b60606000805461071f90612b97565b80601f016020809104026020016040519081016040528092919081815260200182805461074b90612b97565b80156107985780601f1061076d57610100808354040283529160200191610798565b820191906000526020600020905b81548152906001019060200180831161077b57829003601f168201915b5050505050905090565b60006107ad826112d5565b6004600083815260200190815260200160002060009054906101000a900473ffffffffffffffffffffffffffffffffffffffff169050919050565b60006107f382610a9a565b90508073ffffffffffffffffffffffffffffffffffffffff168373ffffffffffffffffffffffffffffffffffffffff1603610863576040517f08c379a000000000000000000000000000000000000000000000000000000000815260040161085a90612c3a565b60405180910390fd5b8073ffffffffffffffffffffffffffffffffffffffff16610882611320565b73ffffffffffffffffffffffffffffffffffffffff1614806108b157506108b0816108ab611320565b61113c565b5b6108f0576040517f08c379a00000000000000000000000000000000000000000000000000000000081526004016108e790612ccc565b60405180910390fd5b6108fa8383611328565b505050565b7f000000000000000000000000000000000000000000000000000000000000000081565b60085481565b61093a610934611320565b826113e1565b610979576040517f08c379a000000000000000000000000000000000000000000000000000000000815260040161097090612d5e565b60405180910390fd5b610984838383611476565b505050565b7f000000000000000000000000000000000000000000000000000000000000000081565b6109b561176f565b60003373ffffffffffffffffffffffffffffffffffffffff16476040516109db90612daf565b60006040518083038185875af1925050503d8060008114610a18576040519150601f19603f3d011682016040523d82523d6000602084013e610a1d565b606091505b5050905080610a61576040517f08c379a0000000000000000000000000000000000000000000000000000000008152600401610a5890612e10565b60405180910390fd5b50565b610a7f83838360405180602001604052806000815250611037565b505050565b610a8c61176f565b610a9682826117ed565b5050565b600080610aa68361185a565b9050600073ffffffffffffffffffffffffffffffffffffffff168173ffffffffffffffffffffffffffffffffffffffff1603610b17576040517f08c379a0000000000000000000000000000000000000000000000000000000008152600401610b0e90612e7c565b60405180910390fd5b80915050919050565b60008073ffffffffffffffffffffffffffffffffffffffff168273ffffffffffffffffffffffffffffffffffffffff1603610b90576040517f08c379a0000000000000000000000000000000000000000000000000000000008152600401610b8790612f0e565b60405180910390fd5b600360008373ffffffffffffffffffffffffffffffffffffffff1673ffffffffffffffffffffffffffffffffffffffff168152602001908152602001600020549050919050565b610bdf61176f565b610be96000611897565b565b6000600760009054906101000a900473ffffffffffffffffffffffffffffffffffffffff16905090565b606060018054610c2490612b97565b80601f0160208091040260200160405190810160405280929190818152602001828054610c5090612b97565b8015610c9d5780601f10610c7257610100808354040283529160200191610c9d565b820191906000526020600020905b815481529060010190602001808311610c8057829003601f168201915b5050505050905090565b600960009054906101000a900460ff16610cf6576040517f08c379a0000000000000000000000000000000000000000000000000000000008152600401610ced90612f7a565b60405180910390fd5b7f000000000000000000000000000000000000000000000000000000000000000081600b60003373ffffffffffffffffffffffffffffffffffffffff1673ffffffffffffffffffffffffffffffffffffffff16815260200190815260200160002054610d629190612fc9565b1115610da3576040517f08c379a0000000000000000000000000000000000000000000000000000000008152600401610d9a90613049565b60405180910390fd5b7f000000000000000000000000000000000000000000000000000000000000000081610dcf9190613069565b341015610e11576040517f08c379a0000000000000000000000000000000000000000000000000000000008152600401610e08906130f7565b60405180910390fd5b7f000000000000000000000000000000000000000000000000000000000000000081600854610e409190612fc9565b1115610e81576040517f08c379a0000000000000000000000000000000000000000000000000000000008152600401610e7890613163565b60405180910390fd5b60005b8181101561101d5760006001600854610e9d9190612fc9565b90506001600854610eae9190612fc9565b6008819055506001600b60003373ffffffffffffffffffffffffffffffffffffffff1673ffffffffffffffffffffffffffffffffffffffff16815260200190815260200160002054610f009190612fc9565b600b60003373ffffffffffffffffffffffffffffffffffffffff1673ffffffffffffffffffffffffffffffffffffffff16815260200190815260200160002081905550610f4d338261195d565b61100981600a600184610f609190613183565b81548110610f7157610f706131b7565b5b906000526020600020018054610f8690612b97565b80601f0160208091040260200160405190810160405280929190818152602001828054610fb290612b97565b8015610fff5780601f10610fd457610100808354040283529160200191610fff565b820191906000526020600020905b815481529060010190602001808311610fe257829003601f168201915b50505050506117ed565b508080611015906131e6565b915050610e84565b5050565b61103361102c611320565b838361197b565b5050565b611048611042611320565b836113e1565b611087576040517f08c379a000000000000000000000000000000000000000000000000000000000815260040161107e90612d5e565b60405180910390fd5b61109384848484611ae7565b50505050565b6110a161176f565b80600960006101000a81548160ff02191690831515021790555050565b60606110c982611b43565b611108576040517f08c379a00000000000000000000000000000000000000000000000000000000081526004016110ff9061327a565b60405180910390fd5b61111182611b84565b9050919050565b7f000000000000000000000000000000000000000000000000000000000000000081565b6000600560008473ffffffffffffffffffffffffffffffffffffffff1673ffffffffffffffffffffffffffffffffffffffff16815260200190815260200160002060008373ffffffffffffffffffffffffffffffffffffffff1673ffffffffffffffffffffffffffffffffffffffff16815260200190815260200160002060009054906101000a900460ff16905092915050565b600b6020528060005260406000206000915090505481565b6111f061176f565b600073ffffffffffffffffffffffffffffffffffffffff168173ffffffffffffffffffffffffffffffffffffffff160361125f576040517f08c379a00000000000000000000000000000000000000000000000000000000081526004016112569061330c565b60405180910390fd5b61126881611897565b50565b60007f01ffc9a7000000000000000000000000000000000000000000000000000000007bffffffffffffffffffffffffffffffffffffffffffffffffffffffff1916827bffffffffffffffffffffffffffffffffffffffffffffffffffffffff1916149050919050565b6112de81611b43565b61131d576040517f08c379a000000000000000000000000000000000000000000000000000000000815260040161131490612e7c565b60405180910390fd5b50565b600033905090565b816004600083815260200190815260200160002060006101000a81548173ffffffffffffffffffffffffffffffffffffffff021916908373ffffffffffffffffffffffffffffffffffffffff160217905550808273ffffffffffffffffffffffffffffffffffffffff1661139b83610a9a565b73ffffffffffffffffffffffffffffffffffffffff167f8c5be1e5ebec7d5bd14f71427d1e84f3dd0314c0f7b2291e5b200ac8c7c3b92560405160405180910390a45050565b6000806113ed83610a9a565b90508073ffffffffffffffffffffffffffffffffffffffff168473ffffffffffffffffffffffffffffffffffffffff16148061142f575061142e818561113c565b5b8061146d57508373ffffffffffffffffffffffffffffffffffffffff16611455846107a2565b73ffffffffffffffffffffffffffffffffffffffff16145b91505092915050565b8273ffffffffffffffffffffffffffffffffffffffff1661149682610a9a565b73ffffffffffffffffffffffffffffffffffffffff16146114ec576040517f08c379a00000000000000000000000000000000000000000000000000000000081526004016114e39061339e565b60405180910390fd5b600073ffffffffffffffffffffffffffffffffffffffff168273ffffffffffffffffffffffffffffffffffffffff160361155b576040517f08c379a000000000000000000000000000000000000000000000000000000000815260040161155290613430565b60405180910390fd5b6115688383836001611c96565b8273ffffffffffffffffffffffffffffffffffffffff1661158882610a9a565b73ffffffffffffffffffffffffffffffffffffffff16146115de576040517f08c379a00000000000000000000000000000000000000000000000000000000081526004016115d59061339e565b60405180910390fd5b6004600082815260200190815260200160002060006101000a81549073ffffffffffffffffffffffffffffffffffffffff02191690556001600360008573ffffffffffffffffffffffffffffffffffffffff1673ffffffffffffffffffffffffffffffffffffffff168152602001908152602001600020600082825403925050819055506001600360008473ffffffffffffffffffffffffffffffffffffffff1673ffffffffffffffffffffffffffffffffffffffff16815260200190815260200160002060008282540192505081905550816002600083815260200190815260200160002060006101000a81548173ffffffffffffffffffffffffffffffffffffffff021916908373ffffffffffffffffffffffffffffffffffffffff160217905550808273ffffffffffffffffffffffffffffffffffffffff168473ffffffffffffffffffffffffffffffffffffffff167fddf252ad1be2c89b69c2b068fc378daa952ba7f163c4a11628f55a4df523b3ef60405160405180910390a461176a8383836001611dbc565b505050565b611777611320565b73ffffffffffffffffffffffffffffffffffffffff16611795610beb565b73ffffffffffffffffffffffffffffffffffffffff16146117eb576040517f08c379a00000000000000000000000000000000000000000000000000000000081526004016117e29061349c565b60405180910390fd5b565b6117f682611b43565b611835576040517f08c379a000000000000000000000000000000000000000000000000000000000815260040161182c9061352e565b60405180910390fd5b8060066000848152602001908152602001600020908161185591906136fa565b505050565b60006002600083815260200190815260200160002060009054906101000a900473ffffffffffffffffffffffffffffffffffffffff169050919050565b6000600760009054906101000a900473ffffffffffffffffffffffffffffffffffffffff16905081600760006101000a81548173ffffffffffffffffffffffffffffffffffffffff021916908373ffffffffffffffffffffffffffffffffffffffff1602179055508173ffffffffffffffffffffffffffffffffffffffff168173ffffffffffffffffffffffffffffffffffffffff167f8be0079c531659141344cd1fd0a4f28419497f9722a3daafe3b4186f6b6457e060405160405180910390a35050565b611977828260405180602001604052806000815250611dc2565b5050565b8173ffffffffffffffffffffffffffffffffffffffff168373ffffffffffffffffffffffffffffffffffffffff16036119e9576040517f08c379a00000000000000000000000000000000000000000000000000000000081526004016119e090613818565b60405180910390fd5b80600560008573ffffffffffffffffffffffffffffffffffffffff1673ffffffffffffffffffffffffffffffffffffffff16815260200190815260200160002060008473ffffffffffffffffffffffffffffffffffffffff1673ffffffffffffffffffffffffffffffffffffffff16815260200190815260200160002060006101000a81548160ff0219169083151502179055508173ffffffffffffffffffffffffffffffffffffffff168373ffffffffffffffffffffffffffffffffffffffff167f17307eab39ab6107e8899845ad3d59bd9653f200f220920489ca2b5937696c3183604051611ada919061249f565b60405180910390a3505050565b611af2848484611476565b611afe84848484611e1d565b611b3d576040517f08c379a0000000000000000000000000000000000000000000000000000000008152600401611b34906138aa565b60405180910390fd5b50505050565b60008073ffffffffffffffffffffffffffffffffffffffff16611b658361185a565b73ffffffffffffffffffffffffffffffffffffffff1614159050919050565b6060611b8f826112d5565b6000600660008481526020019081526020016000208054611baf90612b97565b80601f0160208091040260200160405190810160405280929190818152602001828054611bdb90612b97565b8015611c285780601f10611bfd57610100808354040283529160200191611c28565b820191906000526020600020905b815481529060010190602001808311611c0b57829003601f168201915b505050505090506000611c39611fa4565b90506000815103611c4e578192505050611c91565b600082511115611c83578082604051602001611c6b929190613906565b60405160208183030381529060405292505050611c91565b611c8c84611fbb565b925050505b919050565b6001811115611db657600073ffffffffffffffffffffffffffffffffffffffff168473ffffffffffffffffffffffffffffffffffffffff1614611d2a5780600360008673ffffffffffffffffffffffffffffffffffffffff1673ffffffffffffffffffffffffffffffffffffffff1681526020019081526020016000206000828254611d229190613183565b925050819055505b600073ffffffffffffffffffffffffffffffffffffffff168373ffffffffffffffffffffffffffffffffffffffff1614611db55780600360008573ffffffffffffffffffffffffffffffffffffffff1673ffffffffffffffffffffffffffffffffffffffff1681526020019081526020016000206000828254611dad9190612fc9565b925050819055505b5b50505050565b50505050565b611dcc8383612023565b611dd96000848484611e1d565b611e18576040517f08c379a0000000000000000000000000000000000000000000000000000000008152600401611e0f906138aa565b60405180910390fd5b505050565b6000611e3e8473ffffffffffffffffffffffffffffffffffffffff16612240565b15611f97578373ffffffffffffffffffffffffffffffffffffffff1663150b7a02611e67611320565b8786866040518563ffffffff1660e01b8152600401611e89949392919061397f565b6020604051808303816000875af1925050508015611ec557506040513d601f19601f82011682018060405250810190611ec291906139e0565b60015b611f47573d8060008114611ef5576040519150601f19603f3d011682016040523d82523d6000602084013e611efa565b606091505b506000815103611f3f576040517f08c379a0000000000000000000000000000000000000000000000000000000008152600401611f36906138aa565b60405180910390fd5b805181602001fd5b63150b7a0260e01b7bffffffffffffffffffffffffffffffffffffffffffffffffffffffff1916817bffffffffffffffffffffffffffffffffffffffffffffffffffffffff191614915050611f9c565b600190505b949350505050565b606060405180602001604052806000815250905090565b6060611fc6826112d5565b6000611fd0611fa4565b90506000815111611ff0576040518060200160405280600081525061201b565b80611ffa84612263565b60405160200161200b929190613906565b6040516020818303038152906040525b915050919050565b600073ffffffffffffffffffffffffffffffffffffffff168273ffffffffffffffffffffffffffffffffffffffff1603612092576040517f08c379a000000000000000000000000000000000000000000000000000000000815260040161208990613a59565b60405180910390fd5b61209b81611b43565b156120db576040517f08c379a00000000000000000000000000000000000000000000000000000000081526004016120d290613ac5565b60405180910390fd5b6120e9600083836001611c96565b6120f281611b43565b15612132576040517f08c379a000000000000000000000000000000000000000000000000000000000815260040161212990613ac5565b60405180910390fd5b6001600360008473ffffffffffffffffffffffffffffffffffffffff1673ffffffffffffffffffffffffffffffffffffffff16815260200190815260200160002060008282540192505081905550816002600083815260200190815260200160002060006101000a81548173ffffffffffffffffffffffffffffffffffffffff021916908373ffffffffffffffffffffffffffffffffffffffff160217905550808273ffffffffffffffffffffffffffffffffffffffff16600073ffffffffffffffffffffffffffffffffffffffff167fddf252ad1be2c89b69c2b068fc378daa952ba7f163c4a11628f55a4df523b3ef60405160405180910390a461223c600083836001611dbc565b5050565b6000808273ffffffffffffffffffffffffffffffffffffffff163b119050919050565b60606000600161227284612331565b01905060008167ffffffffffffffff811115612291576122906127b7565b5b6040519080825280601f01601f1916602001820160405280156122c35781602001600182028036833780820191505090505b509050600082602001820190505b600115612326578080600190039150507f3031323334353637383961626364656600000000000000000000000000000000600a86061a8153600a858161231a57612319613ae5565b5b049450600085036122d1575b819350505050919050565b600080600090507a184f03e93ff9f4daa797ed6e38ed64bf6a1f010000000000000000831061238f577a184f03e93ff9f4daa797ed6e38ed64bf6a1f010000000000000000838161238557612384613ae5565b5b0492506040810190505b6d04ee2d6d415b85acef810000000083106123cc576d04ee2d6d415b85acef810000000083816123c2576123c1613ae5565b5b0492506020810190505b662386f26fc1000083106123fb57662386f26fc1000083816123f1576123f0613ae5565b5b0492506010810190505b6305f5e1008310612424576305f5e100838161241a57612419613ae5565b5b0492506008810190505b612710831061244957612710838161243f5761243e613ae5565b5b0492506004810190505b6064831061246c576064838161246257612461613ae5565b5b0492506002810190505b600a831061247b576001810190505b80915050919050565b60008115159050919050565b61249981612484565b82525050565b60006020820190506124b46000830184612490565b92915050565b6000604051905090565b600080fd5b600080fd5b60007fffffffff0000000000000000000000000000000000000000000000000000000082169050919050565b612503816124ce565b811461250e57600080fd5b50565b600081359050612520816124fa565b92915050565b60006020828403121561253c5761253b6124c4565b5b600061254a84828501612511565b91505092915050565b600081519050919050565b600082825260208201905092915050565b60005b8381101561258d578082015181840152602081019050612572565b60008484015250505050565b6000601f19601f8301169050919050565b60006125b582612553565b6125bf818561255e565b93506125cf81856020860161256f565b6125d881612599565b840191505092915050565b600060208201905081810360008301526125fd81846125aa565b905092915050565b6000819050919050565b61261881612605565b811461262357600080fd5b50565b6000813590506126358161260f565b92915050565b600060208284031215612651576126506124c4565b5b600061265f84828501612626565b91505092915050565b600073ffffffffffffffffffffffffffffffffffffffff82169050919050565b600061269382612668565b9050919050565b6126a381612688565b82525050565b60006020820190506126be600083018461269a565b92915050565b6126cd81612688565b81146126d857600080fd5b50565b6000813590506126ea816126c4565b92915050565b60008060408385031215612707576127066124c4565b5b6000612715858286016126db565b925050602061272685828601612626565b9150509250929050565b61273981612605565b82525050565b60006020820190506127546000830184612730565b92915050565b600080600060608486031215612773576127726124c4565b5b6000612781868287016126db565b9350506020612792868287016126db565b92505060406127a386828701612626565b9150509250925092565b600080fd5b600080fd5b7f4e487b7100000000000000000000000000000000000000000000000000000000600052604160045260246000fd5b6127ef82612599565b810181811067ffffffffffffffff8211171561280e5761280d6127b7565b5b80604052505050565b60006128216124ba565b905061282d82826127e6565b919050565b600067ffffffffffffffff82111561284d5761284c6127b7565b5b61285682612599565b9050602081019050919050565b82818337600083830152505050565b600061288561288084612832565b612817565b9050828152602081018484840111156128a1576128a06127b2565b5b6128ac848285612863565b509392505050565b600082601f8301126128c9576128c86127ad565b5b81356128d9848260208601612872565b91505092915050565b600080604083850312156128f9576128f86124c4565b5b600061290785828601612626565b925050602083013567ffffffffffffffff811115612928576129276124c9565b5b612934858286016128b4565b9150509250929050565b600060208284031215612954576129536124c4565b5b6000612962848285016126db565b91505092915050565b61297481612484565b811461297f57600080fd5b50565b6000813590506129918161296b565b92915050565b600080604083850312156129ae576129ad6124c4565b5b60006129bc858286016126db565b92505060206129cd85828601612982565b9150509250929050565b600067ffffffffffffffff8211156129f2576129f16127b7565b5b6129fb82612599565b9050602081019050919050565b6000612a1b612a16846129d7565b612817565b905082815260208101848484011115612a3757612a366127b2565b5b612a42848285612863565b509392505050565b600082601f830112612a5f57612a5e6127ad565b5b8135612a6f848260208601612a08565b91505092915050565b60008060008060808587031215612a9257612a916124c4565b5b6000612aa0878288016126db565b9450506020612ab1878288016126db565b9350506040612ac287828801612626565b925050606085013567ffffffffffffffff811115612ae357612ae26124c9565b5b612aef87828801612a4a565b91505092959194509250565b600060208284031215612b1157612b106124c4565b5b6000612b1f84828501612982565b91505092915050565b60008060408385031215612b3f57612b3e6124c4565b5b6000612b4d858286016126db565b9250506020612b5e858286016126db565b9150509250929050565b7f4e487b7100000000000000000000000000000000000000000000000000000000600052602260045260246000fd5b60006002820490506001821680612baf57607f821691505b602082108103612bc257612bc1612b68565b5b50919050565b7f4552433732313a20617070726f76616c20746f2063757272656e74206f776e6560008201527f7200000000000000000000000000000000000000000000000000000000000000602082015250565b6000612c2460218361255e565b9150612c2f82612bc8565b604082019050919050565b60006020820190508181036000830152612c5381612c17565b9050919050565b7f4552433732313a20617070726f76652063616c6c6572206973206e6f7420746f60008201527f6b656e206f776e6572206f7220617070726f76656420666f7220616c6c000000602082015250565b6000612cb6603d8361255e565b9150612cc182612c5a565b604082019050919050565b60006020820190508181036000830152612ce581612ca9565b9050919050565b7f4552433732313a2063616c6c6572206973206e6f7420746f6b656e206f776e6560008201527f72206f7220617070726f76656400000000000000000000000000000000000000602082015250565b6000612d48602d8361255e565b9150612d5382612cec565b604082019050919050565b60006020820190508181036000830152612d7781612d3b565b9050919050565b600081905092915050565b50565b6000612d99600083612d7e565b9150612da482612d89565b600082019050919050565b6000612dba82612d8c565b9150819050919050565b7f5769746864726177206661696c65642100000000000000000000000000000000600082015250565b6000612dfa60108361255e565b9150612e0582612dc4565b602082019050919050565b60006020820190508181036000830152612e2981612ded565b9050919050565b7f4552433732313a20696e76616c696420746f6b656e2049440000000000000000600082015250565b6000612e6660188361255e565b9150612e7182612e30565b602082019050919050565b60006020820190508181036000830152612e9581612e59565b9050919050565b7f4552433732313a2061646472657373207a65726f206973206e6f74206120766160008201527f6c6964206f776e65720000000000000000000000000000000000000000000000602082015250565b6000612ef860298361255e565b9150612f0382612e9c565b604082019050919050565b60006020820190508181036000830152612f2781612eeb565b9050919050565b7f4d696e74696e67206e6f7420656e61626c656400000000000000000000000000600082015250565b6000612f6460138361255e565b9150612f6f82612f2e565b602082019050919050565b60006020820190508181036000830152612f9381612f57565b9050919050565b7f4e487b7100000000000000000000000000000000000000000000000000000000600052601160045260246000fd5b6000612fd482612605565b9150612fdf83612605565b9250828201905080821115612ff757612ff6612f9a565b5b92915050565b7f4578636565646564206d6178207065722077616c6c6574000000000000000000600082015250565b600061303360178361255e565b915061303e82612ffd565b602082019050919050565b6000602082019050818103600083015261306281613026565b9050919050565b600061307482612605565b915061307f83612605565b925082820261308d81612605565b915082820484148315176130a4576130a3612f9a565b5b5092915050565b7f4e6f7420656e6f75676820657468657220666f72206d696e7400000000000000600082015250565b60006130e160198361255e565b91506130ec826130ab565b602082019050919050565b60006020820190508181036000830152613110816130d4565b9050919050565b7f536f6c64206f7574000000000000000000000000000000000000000000000000600082015250565b600061314d60088361255e565b915061315882613117565b602082019050919050565b6000602082019050818103600083015261317c81613140565b9050919050565b600061318e82612605565b915061319983612605565b92508282039050818111156131b1576131b0612f9a565b5b92915050565b7f4e487b7100000000000000000000000000000000000000000000000000000000600052603260045260246000fd5b60006131f182612605565b91507fffffffffffffffffffffffffffffffffffffffffffffffffffffffffffffffff820361322357613222612f9a565b5b600182019050919050565b7f546f6b656e20646f6573206e6f74206578697374210000000000000000000000600082015250565b600061326460158361255e565b915061326f8261322e565b602082019050919050565b6000602082019050818103600083015261329381613257565b9050919050565b7f4f776e61626c653a206e6577206f776e657220697320746865207a65726f206160008201527f6464726573730000000000000000000000000000000000000000000000000000602082015250565b60006132f660268361255e565b91506133018261329a565b604082019050919050565b60006020820190508181036000830152613325816132e9565b9050919050565b7f4552433732313a207472616e736665722066726f6d20696e636f72726563742060008201527f6f776e6572000000000000000000000000000000000000000000000000000000602082015250565b600061338860258361255e565b91506133938261332c565b604082019050919050565b600060208201905081810360008301526133b78161337b565b9050919050565b7f4552433732313a207472616e7366657220746f20746865207a65726f2061646460008201527f7265737300000000000000000000000000000000000000000000000000000000602082015250565b600061341a60248361255e565b9150613425826133be565b604082019050919050565b600060208201905081810360008301526134498161340d565b9050919050565b7f4f776e61626c653a2063616c6c6572206973206e6f7420746865206f776e6572600082015250565b600061348660208361255e565b915061349182613450565b602082019050919050565b600060208201905081810360008301526134b581613479565b9050919050565b7f45524337323155524953746f726167653a2055524920736574206f66206e6f6e60008201527f6578697374656e7420746f6b656e000000000000000000000000000000000000602082015250565b6000613518602e8361255e565b9150613523826134bc565b604082019050919050565b600060208201905081810360008301526135478161350b565b9050919050565b60008190508160005260206000209050919050565b60006020601f8301049050919050565b600082821b905092915050565b6000600883026135b07fffffffffffffffffffffffffffffffffffffffffffffffffffffffffffffffff82613573565b6135ba8683613573565b95508019841693508086168417925050509392505050565b6000819050919050565b60006135f76135f26135ed84612605565b6135d2565b612605565b9050919050565b6000819050919050565b613611836135dc565b61362561361d826135fe565b848454613580565b825550505050565b600090565b61363a61362d565b613645818484613608565b505050565b5b818110156136695761365e600082613632565b60018101905061364b565b5050565b601f8211156136ae5761367f8161354e565b61368884613563565b81016020851015613697578190505b6136ab6136a385613563565b83018261364a565b50505b505050565b600082821c905092915050565b60006136d1600019846008026136b3565b1980831691505092915050565b60006136ea83836136c0565b9150826002028217905092915050565b61370382612553565b67ffffffffffffffff81111561371c5761371b6127b7565b5b6137268254612b97565b61373182828561366d565b600060209050601f8311600181146137645760008415613752578287015190505b61375c85826136de565b8655506137c4565b601f1984166137728661354e565b60005b8281101561379a57848901518255600182019150602085019450602081019050613775565b868310156137b757848901516137b3601f8916826136c0565b8355505b6001600288020188555050505b505050505050565b7f4552433732313a20617070726f766520746f2063616c6c657200000000000000600082015250565b600061380260198361255e565b915061380d826137cc565b602082019050919050565b60006020820190508181036000830152613831816137f5565b9050919050565b7f4552433732313a207472616e7366657220746f206e6f6e20455243373231526560008201527f63656976657220696d706c656d656e7465720000000000000000000000000000602082015250565b600061389460328361255e565b915061389f82613838565b604082019050919050565b600060208201905081810360008301526138c381613887565b9050919050565b600081905092915050565b60006138e082612553565b6138ea81856138ca565b93506138fa81856020860161256f565b80840191505092915050565b600061391282856138d5565b915061391e82846138d5565b91508190509392505050565b600081519050919050565b600082825260208201905092915050565b60006139518261392a565b61395b8185613935565b935061396b81856020860161256f565b61397481612599565b840191505092915050565b6000608082019050613994600083018761269a565b6139a1602083018661269a565b6139ae6040830185612730565b81810360608301526139c08184613946565b905095945050505050565b6000815190506139da816124fa565b92915050565b6000602082840312156139f6576139f56124c4565b5b6000613a04848285016139cb565b91505092915050565b7f4552433732313a206d696e7420746f20746865207a65726f2061646472657373600082015250565b6000613a4360208361255e565b9150613a4e82613a0d565b602082019050919050565b60006020820190508181036000830152613a7281613a36565b9050919050565b7f4552433732313a20746f6b656e20616c7265616479206d696e74656400000000600082015250565b6000613aaf601c8361255e565b9150613aba82613a79565b602082019050919050565b60006020820190508181036000830152613ade81613aa2565b9050919050565b7f4e487b7100000000000000000000000000000000000000000000000000000000600052601260045260246000fdfea2646970667358221220e4e71bf9e2a3c777ee03ec6ac145fe308dc2262b88cb66298ec7865c841d12bd64736f6c63430008110033",
  "linkReferences": {},
  "deployedLinkReferences": {}
}