{
  "address": "0xeB3d596BbAeeE16235b59F47fA513cdc19C2323B",
  "abi": [
    {
      "inputs": [
        {
          "internalType": "string[4]",
          "name": "tokensUris",
          "type": "string[4]"
        }
      ],
      "stateMutability": "nonpayable",
      "type": "constructor"
    },
    {
      "anonymous": false,
      "inputs": [
        {
          "indexed": true,
          "internalType": "address",
          "name": "owner",
          "type": "address"
        },
        {
          "indexed": true,
          "internalType": "address",
          "name": "approved",
          "type": "address"
        },
        {
          "indexed": true,
          "internalType": "uint256",
          "name": "tokenId",
          "type": "uint256"
        }
      ],
      "name": "Approval",
      "type": "event"
    },
    {
      "anonymous": false,
      "inputs": [
        {
          "indexed": true,
          "internalType": "address",
          "name": "owner",
          "type": "address"
        },
        {
          "indexed": true,
          "internalType": "address",
          "name": "operator",
          "type": "address"
        },
        {
          "indexed": false,
          "internalType": "bool",
          "name": "approved",
          "type": "bool"
        }
      ],
      "name": "ApprovalForAll",
      "type": "event"
    },
    {
      "anonymous": false,
      "inputs": [
        {
          "indexed": true,
          "internalType": "address",
          "name": "previousOwner",
          "type": "address"
        },
        {
          "indexed": true,
          "internalType": "address",
          "name": "newOwner",
          "type": "address"
        }
      ],
      "name": "OwnershipTransferred",
      "type": "event"
    },
    {
      "anonymous": false,
      "inputs": [
        {
          "indexed": true,
          "internalType": "address",
          "name": "from",
          "type": "address"
        },
        {
          "indexed": true,
          "internalType": "address",
          "name": "to",
          "type": "address"
        },
        {
          "indexed": true,
          "internalType": "uint256",
          "name": "tokenId",
          "type": "uint256"
        }
      ],
      "name": "Transfer",
      "type": "event"
    },
    {
      "inputs": [
        {
          "internalType": "address",
          "name": "to",
          "type": "address"
        },
        {
          "internalType": "uint256",
          "name": "tokenId",
          "type": "uint256"
        }
      ],
      "name": "approve",
      "outputs": [],
      "stateMutability": "nonpayable",
      "type": "function"
    },
    {
      "inputs": [
        {
          "internalType": "address",
          "name": "owner",
          "type": "address"
        }
      ],
      "name": "balanceOf",
      "outputs": [
        {
          "internalType": "uint256",
          "name": "",
          "type": "uint256"
        }
      ],
      "stateMutability": "view",
      "type": "function"
    },
    {
      "inputs": [
        {
          "internalType": "uint256",
          "name": "tokenId",
          "type": "uint256"
        }
      ],
      "name": "getApproved",
      "outputs": [
        {
          "internalType": "address",
          "name": "",
          "type": "address"
        }
      ],
      "stateMutability": "view",
      "type": "function"
    },
    {
      "inputs": [
        {
          "internalType": "address",
          "name": "owner",
          "type": "address"
        },
        {
          "internalType": "address",
          "name": "operator",
          "type": "address"
        }
      ],
      "name": "isApprovedForAll",
      "outputs": [
        {
          "internalType": "bool",
          "name": "",
          "type": "bool"
        }
      ],
      "stateMutability": "view",
      "type": "function"
    },
    {
      "inputs": [],
      "name": "isPublicMintEnabled",
      "outputs": [
        {
          "internalType": "bool",
          "name": "",
          "type": "bool"
        }
      ],
      "stateMutability": "view",
      "type": "function"
    },
    {
      "inputs": [],
      "name": "maxPerWallet",
      "outputs": [
        {
          "internalType": "uint256",
          "name": "",
          "type": "uint256"
        }
      ],
      "stateMutability": "view",
      "type": "function"
    },
    {
      "inputs": [],
      "name": "maxSupply",
      "outputs": [
        {
          "internalType": "uint256",
          "name": "",
          "type": "uint256"
        }
      ],
      "stateMutability": "view",
      "type": "function"
    },
    {
      "inputs": [
        {
          "internalType": "uint256",
          "name": "amount",
          "type": "uint256"
        }
      ],
      "name": "mint",
      "outputs": [],
      "stateMutability": "payable",
      "type": "function"
    },
    {
      "inputs": [],
      "name": "name",
      "outputs": [
        {
          "internalType": "string",
          "name": "",
          "type": "string"
        }
      ],
      "stateMutability": "view",
      "type": "function"
    },
    {
      "inputs": [],
      "name": "owner",
      "outputs": [
        {
          "internalType": "address",
          "name": "",
          "type": "address"
        }
      ],
      "stateMutability": "view",
      "type": "function"
    },
    {
      "inputs": [
        {
          "internalType": "uint256",
          "name": "tokenId",
          "type": "uint256"
        }
      ],
      "name": "ownerOf",
      "outputs": [
        {
          "internalType": "address",
          "name": "",
          "type": "address"
        }
      ],
      "stateMutability": "view",
      "type": "function"
    },
    {
      "inputs": [],
      "name": "renounceOwnership",
      "outputs": [],
      "stateMutability": "nonpayable",
      "type": "function"
    },
    {
      "inputs": [
        {
          "internalType": "address",
          "name": "from",
          "type": "address"
        },
        {
          "internalType": "address",
          "name": "to",
          "type": "address"
        },
        {
          "internalType": "uint256",
          "name": "tokenId",
          "type": "uint256"
        }
      ],
      "name": "safeTransferFrom",
      "outputs": [],
      "stateMutability": "nonpayable",
      "type": "function"
    },
    {
      "inputs": [
        {
          "internalType": "address",
          "name": "from",
          "type": "address"
        },
        {
          "internalType": "address",
          "name": "to",
          "type": "address"
        },
        {
          "internalType": "uint256",
          "name": "tokenId",
          "type": "uint256"
        },
        {
          "internalType": "bytes",
          "name": "data",
          "type": "bytes"
        }
      ],
      "name": "safeTransferFrom",
      "outputs": [],
      "stateMutability": "nonpayable",
      "type": "function"
    },
    {
      "inputs": [
        {
          "internalType": "address",
          "name": "operator",
          "type": "address"
        },
        {
          "internalType": "bool",
          "name": "approved",
          "type": "bool"
        }
      ],
      "name": "setApprovalForAll",
      "outputs": [],
      "stateMutability": "nonpayable",
      "type": "function"
    },
    {
      "inputs": [
        {
          "internalType": "string",
          "name": "baseUri",
          "type": "string"
        }
      ],
      "name": "setBaseTokenUri",
      "outputs": [],
      "stateMutability": "nonpayable",
      "type": "function"
    },
    {
      "inputs": [
        {
          "internalType": "bool",
          "name": "isEnabled",
          "type": "bool"
        }
      ],
      "name": "setIsPublicMintEnable",
      "outputs": [],
      "stateMutability": "nonpayable",
      "type": "function"
    },
    {
      "inputs": [
        {
          "internalType": "bytes4",
          "name": "interfaceId",
          "type": "bytes4"
        }
      ],
      "name": "supportsInterface",
      "outputs": [
        {
          "internalType": "bool",
          "name": "",
          "type": "bool"
        }
      ],
      "stateMutability": "view",
      "type": "function"
    },
    {
      "inputs": [],
      "name": "symbol",
      "outputs": [
        {
          "internalType": "string",
          "name": "",
          "type": "string"
        }
      ],
      "stateMutability": "view",
      "type": "function"
    },
    {
      "inputs": [
        {
          "internalType": "uint256",
          "name": "tokenId",
          "type": "uint256"
        }
      ],
      "name": "tokenURI",
      "outputs": [
        {
          "internalType": "string",
          "name": "",
          "type": "string"
        }
      ],
      "stateMutability": "view",
      "type": "function"
    },
    {
      "inputs": [],
      "name": "totalSupply",
      "outputs": [
        {
          "internalType": "uint256",
          "name": "",
          "type": "uint256"
        }
      ],
      "stateMutability": "view",
      "type": "function"
    },
    {
      "inputs": [
        {
          "internalType": "address",
          "name": "from",
          "type": "address"
        },
        {
          "internalType": "address",
          "name": "to",
          "type": "address"
        },
        {
          "internalType": "uint256",
          "name": "tokenId",
          "type": "uint256"
        }
      ],
      "name": "transferFrom",
      "outputs": [],
      "stateMutability": "nonpayable",
      "type": "function"
    },
    {
      "inputs": [
        {
          "internalType": "address",
          "name": "newOwner",
          "type": "address"
        }
      ],
      "name": "transferOwnership",
      "outputs": [],
      "stateMutability": "nonpayable",
      "type": "function"
    },
    {
      "inputs": [
        {
          "internalType": "address",
          "name": "",
          "type": "address"
        }
      ],
      "name": "walletMints",
      "outputs": [
        {
          "internalType": "uint256",
          "name": "",
          "type": "uint256"
        }
      ],
      "stateMutability": "view",
      "type": "function"
    },
    {
      "inputs": [],
      "name": "withdraw",
      "outputs": [],
      "stateMutability": "nonpayable",
      "type": "function"
    },
    {
      "inputs": [],
      "name": "withdrawWallet",
      "outputs": [
        {
          "internalType": "address payable",
          "name": "",
          "type": "address"
        }
      ],
      "stateMutability": "view",
      "type": "function"
    }
  ],
  "transactionHash": "0x99c036dd823abd4ed927010da276328c15ac205f4c4f5a62ae806f93a2efdf86",
  "args": [
    [
      "ipfs://QmUZaX4ThA5XXBRQb2aH9nqoewo55s4WjP19Qsd2KHBaad",
      "ipfs://QmYFrrUFagyq4mvSduts8MNVFH4iQpuedWMMndU8TSFN1t",
      "ipfs://QmV3AXRrcVrjvkjvx67jLUdiTfjVzVhFBXH6uw8ccNWFyH",
      "ipfs://Qmb4MbKg7uqb8FJrV5fP2gHr2TrZLwYaymitGdRZei5MAu"
    ]
  ],
  "numDeployments": 5,
  "solcInputHash": "0d17356b42b846f9f781a576f5fdb36c",
  "bytecode": "0x60a0604052604051806020016040528060405180602001604052806000815250815250600f906001620000349291906200022a565b503480156200004257600080fd5b50604051620044c0380380620044c08339818101604052810190620000689190620005f4565b6040518060400160405280600b81526020017f43686172697479506574730000000000000000000000000000000000000000008152506040518060400160405280600281526020017f43500000000000000000000000000000000000000000000000000000000000008152508160009081620000e5919062000890565b508060019081620000f7919062000890565b5050506200011a6200010e6200015c60201b60201c565b6200016460201b60201c565b66071afd498d00006080818152505080600f9060046200013c9291906200028a565b50600060088190555060326009819055506003600a819055505062000977565b600033905090565b6000600760009054906101000a900473ffffffffffffffffffffffffffffffffffffffff16905081600760006101000a81548173ffffffffffffffffffffffffffffffffffffffff021916908373ffffffffffffffffffffffffffffffffffffffff1602179055508173ffffffffffffffffffffffffffffffffffffffff168173ffffffffffffffffffffffffffffffffffffffff167f8be0079c531659141344cd1fd0a4f28419497f9722a3daafe3b4186f6b6457e060405160405180910390a35050565b82805482825590600052602060002090810192821562000277579160200282015b828111156200027657825182908162000265919062000890565b50916020019190600101906200024b565b5b509050620002869190620002ea565b5090565b828054828255906000526020600020908101928215620002d7579160200282015b82811115620002d6578251829081620002c5919062000890565b5091602001919060010190620002ab565b5b509050620002e69190620002ea565b5090565b5b808211156200030e576000818162000304919062000312565b50600101620002eb565b5090565b50805462000320906200067f565b6000825580601f1062000334575062000355565b601f01602090049060005260206000209081019062000354919062000358565b5b50565b5b808211156200037357600081600090555060010162000359565b5090565b6000604051905090565b600080fd5b600080fd5b600080fd5b6000601f19601f8301169050919050565b7f4e487b7100000000000000000000000000000000000000000000000000000000600052604160045260246000fd5b620003db8262000390565b810181811067ffffffffffffffff82111715620003fd57620003fc620003a1565b5b80604052505050565b60006200041262000377565b9050620004208282620003d0565b919050565b600067ffffffffffffffff821115620004435762000442620003a1565b5b602082029050919050565b600080fd5b600080fd5b600067ffffffffffffffff821115620004765762000475620003a1565b5b620004818262000390565b9050602081019050919050565b60005b83811015620004ae57808201518184015260208101905062000491565b60008484015250505050565b6000620004d1620004cb8462000458565b62000406565b905082815260208101848484011115620004f057620004ef62000453565b5b620004fd8482856200048e565b509392505050565b600082601f8301126200051d576200051c6200038b565b5b81516200052f848260208601620004ba565b91505092915050565b60006200054f620005498462000425565b62000406565b905080602084028301858111156200056c576200056b6200044e565b5b835b81811015620005ba57805167ffffffffffffffff8111156200059557620005946200038b565b5b808601620005a4898262000505565b855260208501945050506020810190506200056e565b5050509392505050565b600082601f830112620005dc57620005db6200038b565b5b6004620005eb84828562000538565b91505092915050565b6000602082840312156200060d576200060c62000381565b5b600082015167ffffffffffffffff8111156200062e576200062d62000386565b5b6200063c84828501620005c4565b91505092915050565b600081519050919050565b7f4e487b7100000000000000000000000000000000000000000000000000000000600052602260045260246000fd5b600060028204905060018216806200069857607f821691505b602082108103620006ae57620006ad62000650565b5b50919050565b60008190508160005260206000209050919050565b60006020601f8301049050919050565b600082821b905092915050565b600060088302620007187fffffffffffffffffffffffffffffffffffffffffffffffffffffffffffffffff82620006d9565b620007248683620006d9565b95508019841693508086168417925050509392505050565b6000819050919050565b6000819050919050565b6000620007716200076b62000765846200073c565b62000746565b6200073c565b9050919050565b6000819050919050565b6200078d8362000750565b620007a56200079c8262000778565b848454620006e6565b825550505050565b600090565b620007bc620007ad565b620007c981848462000782565b505050565b5b81811015620007f157620007e5600082620007b2565b600181019050620007cf565b5050565b601f82111562000840576200080a81620006b4565b6200081584620006c9565b8101602085101562000825578190505b6200083d6200083485620006c9565b830182620007ce565b50505b505050565b600082821c905092915050565b6000620008656000198460080262000845565b1980831691505092915050565b600062000880838362000852565b9150826002028217905092915050565b6200089b8262000645565b67ffffffffffffffff811115620008b757620008b6620003a1565b5b620008c382546200067f565b620008d0828285620007f5565b600060209050601f831160018114620009085760008415620008f3578287015190505b620008ff858262000872565b8655506200096f565b601f1984166200091886620006b4565b60005b8281101562000942578489015182556001820191506020850194506020810190506200091b565b868310156200096257848901516200095e601f89168262000852565b8355505b6001600288020188555050505b505050505050565b608051613b2d620009936000396000610d950152613b2d6000f3fe6080604052600436106101815760003560e01c806385d178f4116100d1578063b88d4fde1161008a578063d5abeb0111610064578063d5abeb011461054d578063e985e9c514610578578063f0293fd3146105b5578063f2fde38b146105f257610181565b8063b88d4fde146104be578063c45580d4146104e7578063c87b56dd1461051057610181565b806385d178f4146103cf5780638da5cb5b146103fa57806395652cfa1461042557806395d89b411461044e578063a0712d6814610479578063a22cb4651461049557610181565b806323b872dd1161013e578063453c231011610118578063453c2310146103135780636352211e1461033e57806370a082311461037b578063715018a6146103b857610181565b806323b872dd146102aa5780633ccfd60b146102d357806342842e0e146102ea57610181565b80630116bc2d1461018657806301ffc9a7146101b157806306fdde03146101ee578063081812fc14610219578063095ea7b31461025657806318160ddd1461027f575b600080fd5b34801561019257600080fd5b5061019b61061b565b6040516101a891906123bb565b60405180910390f35b3480156101bd57600080fd5b506101d860048036038101906101d39190612442565b61062e565b6040516101e591906123bb565b60405180910390f35b3480156101fa57600080fd5b50610203610710565b60405161021091906124ff565b60405180910390f35b34801561022557600080fd5b50610240600480360381019061023b9190612557565b6107a2565b60405161024d91906125c5565b60405180910390f35b34801561026257600080fd5b5061027d6004803603810190610278919061260c565b6107e8565b005b34801561028b57600080fd5b506102946108ff565b6040516102a1919061265b565b60405180910390f35b3480156102b657600080fd5b506102d160048036038101906102cc9190612676565b610905565b005b3480156102df57600080fd5b506102e8610965565b005b3480156102f657600080fd5b50610311600480360381019061030c9190612676565b610a3e565b005b34801561031f57600080fd5b50610328610a5e565b604051610335919061265b565b60405180910390f35b34801561034a57600080fd5b5061036560048036038101906103609190612557565b610a64565b60405161037291906125c5565b60405180910390f35b34801561038757600080fd5b506103a2600480360381019061039d91906126c9565b610aea565b6040516103af919061265b565b60405180910390f35b3480156103c457600080fd5b506103cd610ba1565b005b3480156103db57600080fd5b506103e4610bb5565b6040516103f19190612717565b60405180910390f35b34801561040657600080fd5b5061040f610bdb565b60405161041c91906125c5565b60405180910390f35b34801561043157600080fd5b5061044c60048036038101906104479190612797565b610c05565b005b34801561045a57600080fd5b50610463610c23565b60405161047091906124ff565b60405180910390f35b610493600480360381019061048e9190612557565b610cb5565b005b3480156104a157600080fd5b506104bc60048036038101906104b79190612810565b610f5b565b005b3480156104ca57600080fd5b506104e560048036038101906104e09190612980565b610f71565b005b3480156104f357600080fd5b5061050e60048036038101906105099190612a03565b610fd3565b005b34801561051c57600080fd5b5061053760048036038101906105329190612557565b610ff8565b60405161054491906124ff565b60405180910390f35b34801561055957600080fd5b50610562611052565b60405161056f919061265b565b60405180910390f35b34801561058457600080fd5b5061059f600480360381019061059a9190612a30565b611058565b6040516105ac91906123bb565b60405180910390f35b3480156105c157600080fd5b506105dc60048036038101906105d791906126c9565b6110ec565b6040516105e9919061265b565b60405180910390f35b3480156105fe57600080fd5b50610619600480360381019061061491906126c9565b611104565b005b600b60009054906101000a900460ff1681565b60007f80ac58cd000000000000000000000000000000000000000000000000000000007bffffffffffffffffffffffffffffffffffffffffffffffffffffffff1916827bffffffffffffffffffffffffffffffffffffffffffffffffffffffff191614806106f957507f5b5e139f000000000000000000000000000000000000000000000000000000007bffffffffffffffffffffffffffffffffffffffffffffffffffffffff1916827bffffffffffffffffffffffffffffffffffffffffffffffffffffffff1916145b80610709575061070882611187565b5b9050919050565b60606000805461071f90612a9f565b80601f016020809104026020016040519081016040528092919081815260200182805461074b90612a9f565b80156107985780601f1061076d57610100808354040283529160200191610798565b820191906000526020600020905b81548152906001019060200180831161077b57829003601f168201915b5050505050905090565b60006107ad826111f1565b6004600083815260200190815260200160002060009054906101000a900473ffffffffffffffffffffffffffffffffffffffff169050919050565b60006107f382610a64565b90508073ffffffffffffffffffffffffffffffffffffffff168373ffffffffffffffffffffffffffffffffffffffff1603610863576040517f08c379a000000000000000000000000000000000000000000000000000000000815260040161085a90612b42565b60405180910390fd5b8073ffffffffffffffffffffffffffffffffffffffff1661088261123c565b73ffffffffffffffffffffffffffffffffffffffff1614806108b157506108b0816108ab61123c565b611058565b5b6108f0576040517f08c379a00000000000000000000000000000000000000000000000000000000081526004016108e790612bd4565b60405180910390fd5b6108fa8383611244565b505050565b60085481565b61091661091061123c565b826112fd565b610955576040517f08c379a000000000000000000000000000000000000000000000000000000000815260040161094c90612c66565b60405180910390fd5b610960838383611392565b505050565b61096d61168b565b6000600d60009054906101000a900473ffffffffffffffffffffffffffffffffffffffff1673ffffffffffffffffffffffffffffffffffffffff16476040516109b590612cb7565b60006040518083038185875af1925050503d80600081146109f2576040519150601f19603f3d011682016040523d82523d6000602084013e6109f7565b606091505b5050905080610a3b576040517f08c379a0000000000000000000000000000000000000000000000000000000008152600401610a3290612d18565b60405180910390fd5b50565b610a5983838360405180602001604052806000815250610f71565b505050565b600a5481565b600080610a7083611709565b9050600073ffffffffffffffffffffffffffffffffffffffff168173ffffffffffffffffffffffffffffffffffffffff1603610ae1576040517f08c379a0000000000000000000000000000000000000000000000000000000008152600401610ad890612d84565b60405180910390fd5b80915050919050565b60008073ffffffffffffffffffffffffffffffffffffffff168273ffffffffffffffffffffffffffffffffffffffff1603610b5a576040517f08c379a0000000000000000000000000000000000000000000000000000000008152600401610b5190612e16565b60405180910390fd5b600360008373ffffffffffffffffffffffffffffffffffffffff1673ffffffffffffffffffffffffffffffffffffffff168152602001908152602001600020549050919050565b610ba961168b565b610bb36000611746565b565b600d60009054906101000a900473ffffffffffffffffffffffffffffffffffffffff1681565b6000600760009054906101000a900473ffffffffffffffffffffffffffffffffffffffff16905090565b610c0d61168b565b8181600c9182610c1e929190612fed565b505050565b606060018054610c3290612a9f565b80601f0160208091040260200160405190810160405280929190818152602001828054610c5e90612a9f565b8015610cab5780601f10610c8057610100808354040283529160200191610cab565b820191906000526020600020905b815481529060010190602001808311610c8e57829003601f168201915b5050505050905090565b600b60009054906101000a900460ff16610d04576040517f08c379a0000000000000000000000000000000000000000000000000000000008152600401610cfb90613109565b60405180910390fd5b600a5481600e60003373ffffffffffffffffffffffffffffffffffffffff1673ffffffffffffffffffffffffffffffffffffffff16815260200190815260200160002054610d529190613158565b1115610d93576040517f08c379a0000000000000000000000000000000000000000000000000000000008152600401610d8a906131d8565b60405180910390fd5b7f000000000000000000000000000000000000000000000000000000000000000081610dbf91906131f8565b341015610e01576040517f08c379a0000000000000000000000000000000000000000000000000000000008152600401610df890613286565b60405180910390fd5b60095481600854610e129190613158565b1115610e53576040517f08c379a0000000000000000000000000000000000000000000000000000000008152600401610e4a906132f2565b60405180910390fd5b60005b81811015610f575760006001600854610e6f9190613158565b905060086000815480929190610e8490613312565b9190505550610e93338261180c565b610f4381600f8381548110610eab57610eaa61335a565b5b906000526020600020018054610ec090612a9f565b80601f0160208091040260200160405190810160405280929190818152602001828054610eec90612a9f565b8015610f395780601f10610f0e57610100808354040283529160200191610f39565b820191906000526020600020905b815481529060010190602001808311610f1c57829003601f168201915b505050505061182a565b508080610f4f90613312565b915050610e56565b5050565b610f6d610f6661123c565b8383611897565b5050565b610f82610f7c61123c565b836112fd565b610fc1576040517f08c379a0000000000000000000000000000000000000000000000000000000008152600401610fb890612c66565b60405180910390fd5b610fcd84848484611a03565b50505050565b610fdb61168b565b80600b60006101000a81548160ff02191690831515021790555050565b606061100382611a5f565b611042576040517f08c379a0000000000000000000000000000000000000000000000000000000008152600401611039906133d5565b60405180910390fd5b61104b82611aa0565b9050919050565b60095481565b6000600560008473ffffffffffffffffffffffffffffffffffffffff1673ffffffffffffffffffffffffffffffffffffffff16815260200190815260200160002060008373ffffffffffffffffffffffffffffffffffffffff1673ffffffffffffffffffffffffffffffffffffffff16815260200190815260200160002060009054906101000a900460ff16905092915050565b600e6020528060005260406000206000915090505481565b61110c61168b565b600073ffffffffffffffffffffffffffffffffffffffff168173ffffffffffffffffffffffffffffffffffffffff160361117b576040517f08c379a000000000000000000000000000000000000000000000000000000000815260040161117290613467565b60405180910390fd5b61118481611746565b50565b60007f01ffc9a7000000000000000000000000000000000000000000000000000000007bffffffffffffffffffffffffffffffffffffffffffffffffffffffff1916827bffffffffffffffffffffffffffffffffffffffffffffffffffffffff1916149050919050565b6111fa81611a5f565b611239576040517f08c379a000000000000000000000000000000000000000000000000000000000815260040161123090612d84565b60405180910390fd5b50565b600033905090565b816004600083815260200190815260200160002060006101000a81548173ffffffffffffffffffffffffffffffffffffffff021916908373ffffffffffffffffffffffffffffffffffffffff160217905550808273ffffffffffffffffffffffffffffffffffffffff166112b783610a64565b73ffffffffffffffffffffffffffffffffffffffff167f8c5be1e5ebec7d5bd14f71427d1e84f3dd0314c0f7b2291e5b200ac8c7c3b92560405160405180910390a45050565b60008061130983610a64565b90508073ffffffffffffffffffffffffffffffffffffffff168473ffffffffffffffffffffffffffffffffffffffff16148061134b575061134a8185611058565b5b8061138957508373ffffffffffffffffffffffffffffffffffffffff16611371846107a2565b73ffffffffffffffffffffffffffffffffffffffff16145b91505092915050565b8273ffffffffffffffffffffffffffffffffffffffff166113b282610a64565b73ffffffffffffffffffffffffffffffffffffffff1614611408576040517f08c379a00000000000000000000000000000000000000000000000000000000081526004016113ff906134f9565b60405180910390fd5b600073ffffffffffffffffffffffffffffffffffffffff168273ffffffffffffffffffffffffffffffffffffffff1603611477576040517f08c379a000000000000000000000000000000000000000000000000000000000815260040161146e9061358b565b60405180910390fd5b6114848383836001611bb2565b8273ffffffffffffffffffffffffffffffffffffffff166114a482610a64565b73ffffffffffffffffffffffffffffffffffffffff16146114fa576040517f08c379a00000000000000000000000000000000000000000000000000000000081526004016114f1906134f9565b60405180910390fd5b6004600082815260200190815260200160002060006101000a81549073ffffffffffffffffffffffffffffffffffffffff02191690556001600360008573ffffffffffffffffffffffffffffffffffffffff1673ffffffffffffffffffffffffffffffffffffffff168152602001908152602001600020600082825403925050819055506001600360008473ffffffffffffffffffffffffffffffffffffffff1673ffffffffffffffffffffffffffffffffffffffff16815260200190815260200160002060008282540192505081905550816002600083815260200190815260200160002060006101000a81548173ffffffffffffffffffffffffffffffffffffffff021916908373ffffffffffffffffffffffffffffffffffffffff160217905550808273ffffffffffffffffffffffffffffffffffffffff168473ffffffffffffffffffffffffffffffffffffffff167fddf252ad1be2c89b69c2b068fc378daa952ba7f163c4a11628f55a4df523b3ef60405160405180910390a46116868383836001611cd8565b505050565b61169361123c565b73ffffffffffffffffffffffffffffffffffffffff166116b1610bdb565b73ffffffffffffffffffffffffffffffffffffffff1614611707576040517f08c379a00000000000000000000000000000000000000000000000000000000081526004016116fe906135f7565b60405180910390fd5b565b60006002600083815260200190815260200160002060009054906101000a900473ffffffffffffffffffffffffffffffffffffffff169050919050565b6000600760009054906101000a900473ffffffffffffffffffffffffffffffffffffffff16905081600760006101000a81548173ffffffffffffffffffffffffffffffffffffffff021916908373ffffffffffffffffffffffffffffffffffffffff1602179055508173ffffffffffffffffffffffffffffffffffffffff168173ffffffffffffffffffffffffffffffffffffffff167f8be0079c531659141344cd1fd0a4f28419497f9722a3daafe3b4186f6b6457e060405160405180910390a35050565b611826828260405180602001604052806000815250611cde565b5050565b61183382611a5f565b611872576040517f08c379a000000000000000000000000000000000000000000000000000000000815260040161186990613689565b60405180910390fd5b8060066000848152602001908152602001600020908161189291906136a9565b505050565b8173ffffffffffffffffffffffffffffffffffffffff168373ffffffffffffffffffffffffffffffffffffffff1603611905576040517f08c379a00000000000000000000000000000000000000000000000000000000081526004016118fc906137c7565b60405180910390fd5b80600560008573ffffffffffffffffffffffffffffffffffffffff1673ffffffffffffffffffffffffffffffffffffffff16815260200190815260200160002060008473ffffffffffffffffffffffffffffffffffffffff1673ffffffffffffffffffffffffffffffffffffffff16815260200190815260200160002060006101000a81548160ff0219169083151502179055508173ffffffffffffffffffffffffffffffffffffffff168373ffffffffffffffffffffffffffffffffffffffff167f17307eab39ab6107e8899845ad3d59bd9653f200f220920489ca2b5937696c31836040516119f691906123bb565b60405180910390a3505050565b611a0e848484611392565b611a1a84848484611d39565b611a59576040517f08c379a0000000000000000000000000000000000000000000000000000000008152600401611a5090613859565b60405180910390fd5b50505050565b60008073ffffffffffffffffffffffffffffffffffffffff16611a8183611709565b73ffffffffffffffffffffffffffffffffffffffff1614159050919050565b6060611aab826111f1565b6000600660008481526020019081526020016000208054611acb90612a9f565b80601f0160208091040260200160405190810160405280929190818152602001828054611af790612a9f565b8015611b445780601f10611b1957610100808354040283529160200191611b44565b820191906000526020600020905b815481529060010190602001808311611b2757829003601f168201915b505050505090506000611b55611ec0565b90506000815103611b6a578192505050611bad565b600082511115611b9f578082604051602001611b879291906138b5565b60405160208183030381529060405292505050611bad565b611ba884611ed7565b925050505b919050565b6001811115611cd257600073ffffffffffffffffffffffffffffffffffffffff168473ffffffffffffffffffffffffffffffffffffffff1614611c465780600360008673ffffffffffffffffffffffffffffffffffffffff1673ffffffffffffffffffffffffffffffffffffffff1681526020019081526020016000206000828254611c3e91906138d9565b925050819055505b600073ffffffffffffffffffffffffffffffffffffffff168373ffffffffffffffffffffffffffffffffffffffff1614611cd15780600360008573ffffffffffffffffffffffffffffffffffffffff1673ffffffffffffffffffffffffffffffffffffffff1681526020019081526020016000206000828254611cc99190613158565b925050819055505b5b50505050565b50505050565b611ce88383611f3f565b611cf56000848484611d39565b611d34576040517f08c379a0000000000000000000000000000000000000000000000000000000008152600401611d2b90613859565b60405180910390fd5b505050565b6000611d5a8473ffffffffffffffffffffffffffffffffffffffff1661215c565b15611eb3578373ffffffffffffffffffffffffffffffffffffffff1663150b7a02611d8361123c565b8786866040518563ffffffff1660e01b8152600401611da59493929190613962565b6020604051808303816000875af1925050508015611de157506040513d601f19601f82011682018060405250810190611dde91906139c3565b60015b611e63573d8060008114611e11576040519150601f19603f3d011682016040523d82523d6000602084013e611e16565b606091505b506000815103611e5b576040517f08c379a0000000000000000000000000000000000000000000000000000000008152600401611e5290613859565b60405180910390fd5b805181602001fd5b63150b7a0260e01b7bffffffffffffffffffffffffffffffffffffffffffffffffffffffff1916817bffffffffffffffffffffffffffffffffffffffffffffffffffffffff191614915050611eb8565b600190505b949350505050565b606060405180602001604052806000815250905090565b6060611ee2826111f1565b6000611eec611ec0565b90506000815111611f0c5760405180602001604052806000815250611f37565b80611f168461217f565b604051602001611f279291906138b5565b6040516020818303038152906040525b915050919050565b600073ffffffffffffffffffffffffffffffffffffffff168273ffffffffffffffffffffffffffffffffffffffff1603611fae576040517f08c379a0000000000000000000000000000000000000000000000000000000008152600401611fa590613a3c565b60405180910390fd5b611fb781611a5f565b15611ff7576040517f08c379a0000000000000000000000000000000000000000000000000000000008152600401611fee90613aa8565b60405180910390fd5b612005600083836001611bb2565b61200e81611a5f565b1561204e576040517f08c379a000000000000000000000000000000000000000000000000000000000815260040161204590613aa8565b60405180910390fd5b6001600360008473ffffffffffffffffffffffffffffffffffffffff1673ffffffffffffffffffffffffffffffffffffffff16815260200190815260200160002060008282540192505081905550816002600083815260200190815260200160002060006101000a81548173ffffffffffffffffffffffffffffffffffffffff021916908373ffffffffffffffffffffffffffffffffffffffff160217905550808273ffffffffffffffffffffffffffffffffffffffff16600073ffffffffffffffffffffffffffffffffffffffff167fddf252ad1be2c89b69c2b068fc378daa952ba7f163c4a11628f55a4df523b3ef60405160405180910390a4612158600083836001611cd8565b5050565b6000808273ffffffffffffffffffffffffffffffffffffffff163b119050919050565b60606000600161218e8461224d565b01905060008167ffffffffffffffff8111156121ad576121ac612855565b5b6040519080825280601f01601f1916602001820160405280156121df5781602001600182028036833780820191505090505b509050600082602001820190505b600115612242578080600190039150507f3031323334353637383961626364656600000000000000000000000000000000600a86061a8153600a858161223657612235613ac8565b5b049450600085036121ed575b819350505050919050565b600080600090507a184f03e93ff9f4daa797ed6e38ed64bf6a1f01000000000000000083106122ab577a184f03e93ff9f4daa797ed6e38ed64bf6a1f01000000000000000083816122a1576122a0613ac8565b5b0492506040810190505b6d04ee2d6d415b85acef810000000083106122e8576d04ee2d6d415b85acef810000000083816122de576122dd613ac8565b5b0492506020810190505b662386f26fc10000831061231757662386f26fc10000838161230d5761230c613ac8565b5b0492506010810190505b6305f5e1008310612340576305f5e100838161233657612335613ac8565b5b0492506008810190505b612710831061236557612710838161235b5761235a613ac8565b5b0492506004810190505b60648310612388576064838161237e5761237d613ac8565b5b0492506002810190505b600a8310612397576001810190505b80915050919050565b60008115159050919050565b6123b5816123a0565b82525050565b60006020820190506123d060008301846123ac565b92915050565b6000604051905090565b600080fd5b600080fd5b60007fffffffff0000000000000000000000000000000000000000000000000000000082169050919050565b61241f816123ea565b811461242a57600080fd5b50565b60008135905061243c81612416565b92915050565b600060208284031215612458576124576123e0565b5b60006124668482850161242d565b91505092915050565b600081519050919050565b600082825260208201905092915050565b60005b838110156124a957808201518184015260208101905061248e565b60008484015250505050565b6000601f19601f8301169050919050565b60006124d18261246f565b6124db818561247a565b93506124eb81856020860161248b565b6124f4816124b5565b840191505092915050565b6000602082019050818103600083015261251981846124c6565b905092915050565b6000819050919050565b61253481612521565b811461253f57600080fd5b50565b6000813590506125518161252b565b92915050565b60006020828403121561256d5761256c6123e0565b5b600061257b84828501612542565b91505092915050565b600073ffffffffffffffffffffffffffffffffffffffff82169050919050565b60006125af82612584565b9050919050565b6125bf816125a4565b82525050565b60006020820190506125da60008301846125b6565b92915050565b6125e9816125a4565b81146125f457600080fd5b50565b600081359050612606816125e0565b92915050565b60008060408385031215612623576126226123e0565b5b6000612631858286016125f7565b925050602061264285828601612542565b9150509250929050565b61265581612521565b82525050565b6000602082019050612670600083018461264c565b92915050565b60008060006060848603121561268f5761268e6123e0565b5b600061269d868287016125f7565b93505060206126ae868287016125f7565b92505060406126bf86828701612542565b9150509250925092565b6000602082840312156126df576126de6123e0565b5b60006126ed848285016125f7565b91505092915050565b600061270182612584565b9050919050565b612711816126f6565b82525050565b600060208201905061272c6000830184612708565b92915050565b600080fd5b600080fd5b600080fd5b60008083601f84011261275757612756612732565b5b8235905067ffffffffffffffff81111561277457612773612737565b5b6020830191508360018202830111156127905761278f61273c565b5b9250929050565b600080602083850312156127ae576127ad6123e0565b5b600083013567ffffffffffffffff8111156127cc576127cb6123e5565b5b6127d885828601612741565b92509250509250929050565b6127ed816123a0565b81146127f857600080fd5b50565b60008135905061280a816127e4565b92915050565b60008060408385031215612827576128266123e0565b5b6000612835858286016125f7565b9250506020612846858286016127fb565b9150509250929050565b600080fd5b7f4e487b7100000000000000000000000000000000000000000000000000000000600052604160045260246000fd5b61288d826124b5565b810181811067ffffffffffffffff821117156128ac576128ab612855565b5b80604052505050565b60006128bf6123d6565b90506128cb8282612884565b919050565b600067ffffffffffffffff8211156128eb576128ea612855565b5b6128f4826124b5565b9050602081019050919050565b82818337600083830152505050565b600061292361291e846128d0565b6128b5565b90508281526020810184848401111561293f5761293e612850565b5b61294a848285612901565b509392505050565b600082601f83011261296757612966612732565b5b8135612977848260208601612910565b91505092915050565b6000806000806080858703121561299a576129996123e0565b5b60006129a8878288016125f7565b94505060206129b9878288016125f7565b93505060406129ca87828801612542565b925050606085013567ffffffffffffffff8111156129eb576129ea6123e5565b5b6129f787828801612952565b91505092959194509250565b600060208284031215612a1957612a186123e0565b5b6000612a27848285016127fb565b91505092915050565b60008060408385031215612a4757612a466123e0565b5b6000612a55858286016125f7565b9250506020612a66858286016125f7565b9150509250929050565b7f4e487b7100000000000000000000000000000000000000000000000000000000600052602260045260246000fd5b60006002820490506001821680612ab757607f821691505b602082108103612aca57612ac9612a70565b5b50919050565b7f4552433732313a20617070726f76616c20746f2063757272656e74206f776e6560008201527f7200000000000000000000000000000000000000000000000000000000000000602082015250565b6000612b2c60218361247a565b9150612b3782612ad0565b604082019050919050565b60006020820190508181036000830152612b5b81612b1f565b9050919050565b7f4552433732313a20617070726f76652063616c6c6572206973206e6f7420746f60008201527f6b656e206f776e6572206f7220617070726f76656420666f7220616c6c000000602082015250565b6000612bbe603d8361247a565b9150612bc982612b62565b604082019050919050565b60006020820190508181036000830152612bed81612bb1565b9050919050565b7f4552433732313a2063616c6c6572206973206e6f7420746f6b656e206f776e6560008201527f72206f7220617070726f76656400000000000000000000000000000000000000602082015250565b6000612c50602d8361247a565b9150612c5b82612bf4565b604082019050919050565b60006020820190508181036000830152612c7f81612c43565b9050919050565b600081905092915050565b50565b6000612ca1600083612c86565b9150612cac82612c91565b600082019050919050565b6000612cc282612c94565b9150819050919050565b7f5769746864726177206661696c65642100000000000000000000000000000000600082015250565b6000612d0260108361247a565b9150612d0d82612ccc565b602082019050919050565b60006020820190508181036000830152612d3181612cf5565b9050919050565b7f4552433732313a20696e76616c696420746f6b656e2049440000000000000000600082015250565b6000612d6e60188361247a565b9150612d7982612d38565b602082019050919050565b60006020820190508181036000830152612d9d81612d61565b9050919050565b7f4552433732313a2061646472657373207a65726f206973206e6f74206120766160008201527f6c6964206f776e65720000000000000000000000000000000000000000000000602082015250565b6000612e0060298361247a565b9150612e0b82612da4565b604082019050919050565b60006020820190508181036000830152612e2f81612df3565b9050919050565b600082905092915050565b60008190508160005260206000209050919050565b60006020601f8301049050919050565b600082821b905092915050565b600060088302612ea37fffffffffffffffffffffffffffffffffffffffffffffffffffffffffffffffff82612e66565b612ead8683612e66565b95508019841693508086168417925050509392505050565b6000819050919050565b6000612eea612ee5612ee084612521565b612ec5565b612521565b9050919050565b6000819050919050565b612f0483612ecf565b612f18612f1082612ef1565b848454612e73565b825550505050565b600090565b612f2d612f20565b612f38818484612efb565b505050565b5b81811015612f5c57612f51600082612f25565b600181019050612f3e565b5050565b601f821115612fa157612f7281612e41565b612f7b84612e56565b81016020851015612f8a578190505b612f9e612f9685612e56565b830182612f3d565b50505b505050565b600082821c905092915050565b6000612fc460001984600802612fa6565b1980831691505092915050565b6000612fdd8383612fb3565b9150826002028217905092915050565b612ff78383612e36565b67ffffffffffffffff8111156130105761300f612855565b5b61301a8254612a9f565b613025828285612f60565b6000601f8311600181146130545760008415613042578287013590505b61304c8582612fd1565b8655506130b4565b601f19841661306286612e41565b60005b8281101561308a57848901358255600182019150602085019450602081019050613065565b868310156130a757848901356130a3601f891682612fb3565b8355505b6001600288020188555050505b50505050505050565b7f4d696e74696e67206e6f7420656e61626c656400000000000000000000000000600082015250565b60006130f360138361247a565b91506130fe826130bd565b602082019050919050565b60006020820190508181036000830152613122816130e6565b9050919050565b7f4e487b7100000000000000000000000000000000000000000000000000000000600052601160045260246000fd5b600061316382612521565b915061316e83612521565b925082820190508082111561318657613185613129565b5b92915050565b7f4578636565646564206d6178207065722077616c6c6574000000000000000000600082015250565b60006131c260178361247a565b91506131cd8261318c565b602082019050919050565b600060208201905081810360008301526131f1816131b5565b9050919050565b600061320382612521565b915061320e83612521565b925082820261321c81612521565b9150828204841483151761323357613232613129565b5b5092915050565b7f4e6f7420656e6f75676820657468657220666f72206d696e7400000000000000600082015250565b600061327060198361247a565b915061327b8261323a565b602082019050919050565b6000602082019050818103600083015261329f81613263565b9050919050565b7f536f6c64206f7574000000000000000000000000000000000000000000000000600082015250565b60006132dc60088361247a565b91506132e7826132a6565b602082019050919050565b6000602082019050818103600083015261330b816132cf565b9050919050565b600061331d82612521565b91507fffffffffffffffffffffffffffffffffffffffffffffffffffffffffffffffff820361334f5761334e613129565b5b600182019050919050565b7f4e487b7100000000000000000000000000000000000000000000000000000000600052603260045260246000fd5b7f546f6b656e20646f657320206e6f742065786973742100000000000000000000600082015250565b60006133bf60168361247a565b91506133ca82613389565b602082019050919050565b600060208201905081810360008301526133ee816133b2565b9050919050565b7f4f776e61626c653a206e6577206f776e657220697320746865207a65726f206160008201527f6464726573730000000000000000000000000000000000000000000000000000602082015250565b600061345160268361247a565b915061345c826133f5565b604082019050919050565b6000602082019050818103600083015261348081613444565b9050919050565b7f4552433732313a207472616e736665722066726f6d20696e636f72726563742060008201527f6f776e6572000000000000000000000000000000000000000000000000000000602082015250565b60006134e360258361247a565b91506134ee82613487565b604082019050919050565b60006020820190508181036000830152613512816134d6565b9050919050565b7f4552433732313a207472616e7366657220746f20746865207a65726f2061646460008201527f7265737300000000000000000000000000000000000000000000000000000000602082015250565b600061357560248361247a565b915061358082613519565b604082019050919050565b600060208201905081810360008301526135a481613568565b9050919050565b7f4f776e61626c653a2063616c6c6572206973206e6f7420746865206f776e6572600082015250565b60006135e160208361247a565b91506135ec826135ab565b602082019050919050565b60006020820190508181036000830152613610816135d4565b9050919050565b7f45524337323155524953746f726167653a2055524920736574206f66206e6f6e60008201527f6578697374656e7420746f6b656e000000000000000000000000000000000000602082015250565b6000613673602e8361247a565b915061367e82613617565b604082019050919050565b600060208201905081810360008301526136a281613666565b9050919050565b6136b28261246f565b67ffffffffffffffff8111156136cb576136ca612855565b5b6136d58254612a9f565b6136e0828285612f60565b600060209050601f8311600181146137135760008415613701578287015190505b61370b8582612fd1565b865550613773565b601f19841661372186612e41565b60005b8281101561374957848901518255600182019150602085019450602081019050613724565b868310156137665784890151613762601f891682612fb3565b8355505b6001600288020188555050505b505050505050565b7f4552433732313a20617070726f766520746f2063616c6c657200000000000000600082015250565b60006137b160198361247a565b91506137bc8261377b565b602082019050919050565b600060208201905081810360008301526137e0816137a4565b9050919050565b7f4552433732313a207472616e7366657220746f206e6f6e20455243373231526560008201527f63656976657220696d706c656d656e7465720000000000000000000000000000602082015250565b600061384360328361247a565b915061384e826137e7565b604082019050919050565b6000602082019050818103600083015261387281613836565b9050919050565b600081905092915050565b600061388f8261246f565b6138998185613879565b93506138a981856020860161248b565b80840191505092915050565b60006138c18285613884565b91506138cd8284613884565b91508190509392505050565b60006138e482612521565b91506138ef83612521565b925082820390508181111561390757613906613129565b5b92915050565b600081519050919050565b600082825260208201905092915050565b60006139348261390d565b61393e8185613918565b935061394e81856020860161248b565b613957816124b5565b840191505092915050565b600060808201905061397760008301876125b6565b61398460208301866125b6565b613991604083018561264c565b81810360608301526139a38184613929565b905095945050505050565b6000815190506139bd81612416565b92915050565b6000602082840312156139d9576139d86123e0565b5b60006139e7848285016139ae565b91505092915050565b7f4552433732313a206d696e7420746f20746865207a65726f2061646472657373600082015250565b6000613a2660208361247a565b9150613a31826139f0565b602082019050919050565b60006020820190508181036000830152613a5581613a19565b9050919050565b7f4552433732313a20746f6b656e20616c7265616479206d696e74656400000000600082015250565b6000613a92601c8361247a565b9150613a9d82613a5c565b602082019050919050565b60006020820190508181036000830152613ac181613a85565b9050919050565b7f4e487b7100000000000000000000000000000000000000000000000000000000600052601260045260246000fdfea26469706673582212207d39296bbbced7bd05261b1c659a8084421fd4badd609a63d7ce3bc3e638b8da64736f6c63430008110033",
  "devdoc": {
    "kind": "dev",
    "methods": {
      "approve(address,uint256)": {
        "details": "See {IERC721-approve}."
      },
      "balanceOf(address)": {
        "details": "See {IERC721-balanceOf}."
      },
      "getApproved(uint256)": {
        "details": "See {IERC721-getApproved}."
      },
      "isApprovedForAll(address,address)": {
        "details": "See {IERC721-isApprovedForAll}."
      },
      "name()": {
        "details": "See {IERC721Metadata-name}."
      },
      "owner()": {
        "details": "Returns the address of the current owner."
      },
      "ownerOf(uint256)": {
        "details": "See {IERC721-ownerOf}."
      },
      "renounceOwnership()": {
        "details": "Leaves the contract without owner. It will not be possible to call `onlyOwner` functions anymore. Can only be called by the current owner. NOTE: Renouncing ownership will leave the contract without an owner, thereby removing any functionality that is only available to the owner."
      },
      "safeTransferFrom(address,address,uint256)": {
        "details": "See {IERC721-safeTransferFrom}."
      },
      "safeTransferFrom(address,address,uint256,bytes)": {
        "details": "See {IERC721-safeTransferFrom}."
      },
      "setApprovalForAll(address,bool)": {
        "details": "See {IERC721-setApprovalForAll}."
      },
      "supportsInterface(bytes4)": {
        "details": "See {IERC165-supportsInterface}."
      },
      "symbol()": {
        "details": "See {IERC721Metadata-symbol}."
      },
      "tokenURI(uint256)": {
        "details": "See {IERC721Metadata-tokenURI}."
      },
      "transferFrom(address,address,uint256)": {
        "details": "See {IERC721-transferFrom}."
      },
      "transferOwnership(address)": {
        "details": "Transfers ownership of the contract to a new account (`newOwner`). Can only be called by the current owner."
      }
    },
    "version": 1
  },
  "userdoc": {
    "kind": "user",
    "methods": {},
    "version": 1
  },
  "storageLayout": {
    "storage": [
      {
        "astId": 138,
        "contract": "contracts/CharityPets.sol:CharityPets",
        "label": "_name",
        "offset": 0,
        "slot": "0",
        "type": "t_string_storage"
      },
      {
        "astId": 140,
        "contract": "contracts/CharityPets.sol:CharityPets",
        "label": "_symbol",
        "offset": 0,
        "slot": "1",
        "type": "t_string_storage"
      },
      {
        "astId": 144,
        "contract": "contracts/CharityPets.sol:CharityPets",
        "label": "_owners",
        "offset": 0,
        "slot": "2",
        "type": "t_mapping(t_uint256,t_address)"
      },
      {
        "astId": 148,
        "contract": "contracts/CharityPets.sol:CharityPets",
        "label": "_balances",
        "offset": 0,
        "slot": "3",
        "type": "t_mapping(t_address,t_uint256)"
      },
      {
        "astId": 152,
        "contract": "contracts/CharityPets.sol:CharityPets",
        "label": "_tokenApprovals",
        "offset": 0,
        "slot": "4",
        "type": "t_mapping(t_uint256,t_address)"
      },
      {
        "astId": 158,
        "contract": "contracts/CharityPets.sol:CharityPets",
        "label": "_operatorApprovals",
        "offset": 0,
        "slot": "5",
        "type": "t_mapping(t_address,t_mapping(t_address,t_bool))"
      },
      {
        "astId": 1204,
        "contract": "contracts/CharityPets.sol:CharityPets",
        "label": "_tokenURIs",
        "offset": 0,
        "slot": "6",
        "type": "t_mapping(t_uint256,t_string_storage)"
      },
      {
        "astId": 7,
        "contract": "contracts/CharityPets.sol:CharityPets",
        "label": "_owner",
        "offset": 0,
        "slot": "7",
        "type": "t_address"
      },
      {
        "astId": 2781,
        "contract": "contracts/CharityPets.sol:CharityPets",
        "label": "totalSupply",
        "offset": 0,
        "slot": "8",
        "type": "t_uint256"
      },
      {
        "astId": 2783,
        "contract": "contracts/CharityPets.sol:CharityPets",
        "label": "maxSupply",
        "offset": 0,
        "slot": "9",
        "type": "t_uint256"
      },
      {
        "astId": 2785,
        "contract": "contracts/CharityPets.sol:CharityPets",
        "label": "maxPerWallet",
        "offset": 0,
        "slot": "10",
        "type": "t_uint256"
      },
      {
        "astId": 2787,
        "contract": "contracts/CharityPets.sol:CharityPets",
        "label": "isPublicMintEnabled",
        "offset": 0,
        "slot": "11",
        "type": "t_bool"
      },
      {
        "astId": 2789,
        "contract": "contracts/CharityPets.sol:CharityPets",
        "label": "baseTokenUri",
        "offset": 0,
        "slot": "12",
        "type": "t_string_storage"
      },
      {
        "astId": 2791,
        "contract": "contracts/CharityPets.sol:CharityPets",
        "label": "withdrawWallet",
        "offset": 0,
        "slot": "13",
        "type": "t_address_payable"
      },
      {
        "astId": 2795,
        "contract": "contracts/CharityPets.sol:CharityPets",
        "label": "walletMints",
        "offset": 0,
        "slot": "14",
        "type": "t_mapping(t_address,t_uint256)"
      },
      {
        "astId": 2800,
        "contract": "contracts/CharityPets.sol:CharityPets",
        "label": "i_tokensUris",
        "offset": 0,
        "slot": "15",
        "type": "t_array(t_string_storage)dyn_storage"
      }
    ],
    "types": {
      "t_address": {
        "encoding": "inplace",
        "label": "address",
        "numberOfBytes": "20"
      },
      "t_address_payable": {
        "encoding": "inplace",
        "label": "address payable",
        "numberOfBytes": "20"
      },
      "t_array(t_string_storage)dyn_storage": {
        "base": "t_string_storage",
        "encoding": "dynamic_array",
        "label": "string[]",
        "numberOfBytes": "32"
      },
      "t_bool": {
        "encoding": "inplace",
        "label": "bool",
        "numberOfBytes": "1"
      },
      "t_mapping(t_address,t_bool)": {
        "encoding": "mapping",
        "key": "t_address",
        "label": "mapping(address => bool)",
        "numberOfBytes": "32",
        "value": "t_bool"
      },
      "t_mapping(t_address,t_mapping(t_address,t_bool))": {
        "encoding": "mapping",
        "key": "t_address",
        "label": "mapping(address => mapping(address => bool))",
        "numberOfBytes": "32",
        "value": "t_mapping(t_address,t_bool)"
      },
      "t_mapping(t_address,t_uint256)": {
        "encoding": "mapping",
        "key": "t_address",
        "label": "mapping(address => uint256)",
        "numberOfBytes": "32",
        "value": "t_uint256"
      },
      "t_mapping(t_uint256,t_address)": {
        "encoding": "mapping",
        "key": "t_uint256",
        "label": "mapping(uint256 => address)",
        "numberOfBytes": "32",
        "value": "t_address"
      },
      "t_mapping(t_uint256,t_string_storage)": {
        "encoding": "mapping",
        "key": "t_uint256",
        "label": "mapping(uint256 => string)",
        "numberOfBytes": "32",
        "value": "t_string_storage"
      },
      "t_string_storage": {
        "encoding": "bytes",
        "label": "string",
        "numberOfBytes": "32"
      },
      "t_uint256": {
        "encoding": "inplace",
        "label": "uint256",
        "numberOfBytes": "32"
      }
    }
  }
}